{
  "_format": "hh-sol-artifact-1",
  "contractName": "ArbitrageBot",
  "sourceName": "contracts/ArbitrageBot.sol",
  "abi": [
    {
      "inputs": [
        {
          "internalType": "address",
          "name": "initialOwner",
          "type": "address"
        }
      ],
      "stateMutability": "nonpayable",
      "type": "constructor"
    },
    {
      "inputs": [
        {
          "internalType": "address",
          "name": "owner",
          "type": "address"
        }
      ],
      "name": "OwnableInvalidOwner",
      "type": "error"
    },
    {
      "inputs": [
        {
          "internalType": "address",
          "name": "account",
          "type": "address"
        }
      ],
      "name": "OwnableUnauthorizedAccount",
      "type": "error"
    },
    {
      "inputs": [],
      "name": "ReentrancyGuardReentrantCall",
      "type": "error"
    },
    {
      "anonymous": false,
      "inputs": [
        {
          "indexed": true,
          "internalType": "address",
          "name": "previousOwner",
          "type": "address"
        },
        {
          "indexed": true,
          "internalType": "address",
          "name": "newOwner",
          "type": "address"
        }
      ],
      "name": "OwnershipTransferred",
      "type": "event"
    },
    {
      "inputs": [
        {
          "internalType": "address",
          "name": "asset",
          "type": "address"
        },
        {
          "internalType": "uint256",
          "name": "amount",
          "type": "uint256"
        },
        {
          "internalType": "uint256",
          "name": "premium",
          "type": "uint256"
        },
        {
          "internalType": "address",
          "name": "initiator",
          "type": "address"
        },
        {
          "internalType": "bytes",
          "name": "params",
          "type": "bytes"
        }
      ],
      "name": "executeOperation",
      "outputs": [
        {
          "internalType": "bool",
          "name": "",
          "type": "bool"
        }
      ],
      "stateMutability": "nonpayable",
      "type": "function"
    },
    {
      "inputs": [],
      "name": "getGreeting",
      "outputs": [
        {
          "internalType": "string",
          "name": "",
          "type": "string"
        }
      ],
      "stateMutability": "pure",
      "type": "function"
    },
    {
      "inputs": [
        {
          "internalType": "address",
          "name": "asset",
          "type": "address"
        },
        {
          "internalType": "uint256",
          "name": "amount",
          "type": "uint256"
        },
        {
          "internalType": "bytes",
          "name": "params",
          "type": "bytes"
        }
      ],
      "name": "initiateFlashLoan",
      "outputs": [],
      "stateMutability": "nonpayable",
      "type": "function"
    },
    {
      "inputs": [],
      "name": "owner",
      "outputs": [
        {
          "internalType": "address",
          "name": "",
          "type": "address"
        }
      ],
      "stateMutability": "view",
      "type": "function"
    },
    {
      "inputs": [],
      "name": "renounceOwnership",
      "outputs": [],
      "stateMutability": "nonpayable",
      "type": "function"
    },
    {
      "inputs": [
        {
          "internalType": "address",
          "name": "newOwner",
          "type": "address"
        }
      ],
      "name": "transferOwnership",
      "outputs": [],
      "stateMutability": "nonpayable",
      "type": "function"
    }
  ],
  "bytecode": "0x608060405234801561001057600080fd5b506040516107e43803806107e483398101604081905261002f9161016d565b6001600055806001600160a01b03811661006357604051631e4fbdf760e01b81526000600482015260240160405180910390fd5b61006c8161011b565b50600280546001600160a01b03191673b53c1a33016b2dc2ff3653530bff1848a515c8c590811790915560408051630261bf8b60e01b81529051630261bf8b916004808201926020929091908290030181865afa1580156100d1573d6000803e3d6000fd5b505050506040513d601f19601f820116820180604052508101906100f5919061016d565b600380546001600160a01b0319166001600160a01b03929092169190911790555061019d565b600180546001600160a01b038381166001600160a01b0319831681179093556040519116919082907f8be0079c531659141344cd1fd0a4f28419497f9722a3daafe3b4186f6b6457e090600090a35050565b60006020828403121561017f57600080fd5b81516001600160a01b038116811461019657600080fd5b9392505050565b610638806101ac6000396000f3fe608060405234801561001057600080fd5b50600436106100625760003560e01c80631b11d0ff14610067578063715018a61461008f5780638da5cb5b14610099578063e95437aa146100b4578063f2fde38b146100c7578063fe50cc72146100da575b600080fd5b61007a610075366004610418565b610119565b60405190151581526020015b60405180910390f35b610097610267565b005b6001546040516001600160a01b039091168152602001610086565b6100976100c2366004610490565b61027b565b6100976100d53660046104ea565b6102f6565b604080518082018252601781527f48656c6c6f2c2041726269747261676520576f726c642100000000000000000060208201529051610086919061050c565b6003546000906001600160a01b0316331461017b5760405162461bcd60e51b815260206004820152601f60248201527f43616c6c206d75737420636f6d652066726f6d204c656e64696e67506f6f6c0060448201526064015b60405180910390fd5b6001600160a01b03841630146101d35760405162461bcd60e51b815260206004820152601f60248201527f496e69746961746f72206d757374206265207468697320636f6e7472616374006044820152606401610172565b60006101df868861055a565b60035460405163095ea7b360e01b81526001600160a01b0391821660048201526024810183905291925089169063095ea7b3906044016020604051808303816000875af1158015610234573d6000803e3d6000fd5b505050506040513d601f19601f820116820180604052508101906102589190610581565b50600198975050505050505050565b61026f610334565b6102796000610361565b565b610283610334565b6003546040516310ac2ddf60e21b81526001600160a01b03909116906342b0b77c906102be90309088908890889088906000906004016105a3565b600060405180830381600087803b1580156102d857600080fd5b505af11580156102ec573d6000803e3d6000fd5b5050505050505050565b6102fe610334565b6001600160a01b03811661032857604051631e4fbdf760e01b815260006004820152602401610172565b61033181610361565b50565b6001546001600160a01b031633146102795760405163118cdaa760e01b8152336004820152602401610172565b600180546001600160a01b038381166001600160a01b0319831681179093556040519116919082907f8be0079c531659141344cd1fd0a4f28419497f9722a3daafe3b4186f6b6457e090600090a35050565b80356001600160a01b03811681146103ca57600080fd5b919050565b60008083601f8401126103e157600080fd5b50813567ffffffffffffffff8111156103f957600080fd5b60208301915083602082850101111561041157600080fd5b9250929050565b60008060008060008060a0878903121561043157600080fd5b61043a876103b3565b95506020870135945060408701359350610456606088016103b3565b9250608087013567ffffffffffffffff81111561047257600080fd5b61047e89828a016103cf565b979a9699509497509295939492505050565b600080600080606085870312156104a657600080fd5b6104af856103b3565b935060208501359250604085013567ffffffffffffffff8111156104d257600080fd5b6104de878288016103cf565b95989497509550505050565b6000602082840312156104fc57600080fd5b610505826103b3565b9392505050565b600060208083528351808285015260005b818110156105395785810183015185820160400152820161051d565b506000604082860101526040601f19601f8301168501019250505092915050565b8082018082111561057b57634e487b7160e01b600052601160045260246000fd5b92915050565b60006020828403121561059357600080fd5b8151801515811461050557600080fd5b6001600160a01b038781168252861660208201526040810185905260a06060820181905281018390526000838560c0840137600060c0858401015260c0601f19601f860116830101905061ffff8316608083015297965050505050505056fea2646970667358221220aba21a705a29b0a8bc8391fb214254233536e1a8cfea34de6b0f9e1ccfdd259e64736f6c63430008140033",
  "linkReferences": {},
  "deployedLinkReferences": {}
}