{
  "_format": "hh-sol-artifact-1",
  "contractName": "ArbitrageBot",
  "sourceName": "contracts/ArbitrageBot.sol",
  "abi": [
    {
      "inputs": [
        {
          "internalType": "address",
          "name": "initialOwner",
          "type": "address"
        },
        {
          "internalType": "address",
          "name": "_addressesProvider",
          "type": "address"
        }
      ],
      "stateMutability": "nonpayable",
      "type": "constructor"
    },
    {
      "inputs": [
        {
          "internalType": "address",
          "name": "owner",
          "type": "address"
        }
      ],
      "name": "OwnableInvalidOwner",
      "type": "error"
    },
    {
      "inputs": [
        {
          "internalType": "address",
          "name": "account",
          "type": "address"
        }
      ],
      "name": "OwnableUnauthorizedAccount",
      "type": "error"
    },
    {
      "inputs": [],
      "name": "ReentrancyGuardReentrantCall",
      "type": "error"
    },
    {
      "anonymous": false,
      "inputs": [
        {
          "indexed": true,
          "internalType": "address",
          "name": "previousOwner",
          "type": "address"
        },
        {
          "indexed": true,
          "internalType": "address",
          "name": "newOwner",
          "type": "address"
        }
      ],
      "name": "OwnershipTransferred",
      "type": "event"
    },
    {
      "stateMutability": "payable",
      "type": "fallback"
    },
    {
      "inputs": [],
      "name": "addressesProvider",
      "outputs": [
        {
          "internalType": "contract IPoolAddressesProvider",
          "name": "",
          "type": "address"
        }
      ],
      "stateMutability": "view",
      "type": "function"
    },
    {
      "inputs": [],
      "name": "checkEtherBalance",
      "outputs": [
        {
          "internalType": "uint256",
          "name": "",
          "type": "uint256"
        }
      ],
      "stateMutability": "view",
      "type": "function"
    },
    {
      "inputs": [
        {
          "internalType": "address",
          "name": "tokenAddress",
          "type": "address"
        }
      ],
      "name": "checkTokenBalance",
      "outputs": [
        {
          "internalType": "uint256",
          "name": "",
          "type": "uint256"
        }
      ],
      "stateMutability": "view",
      "type": "function"
    },
    {
      "inputs": [
        {
          "internalType": "address",
          "name": "asset",
          "type": "address"
        },
        {
          "internalType": "uint256",
          "name": "amount",
          "type": "uint256"
        },
        {
          "internalType": "uint256",
          "name": "premium",
          "type": "uint256"
        },
        {
          "internalType": "address",
          "name": "initiator",
          "type": "address"
        },
        {
          "internalType": "bytes",
          "name": "params",
          "type": "bytes"
        }
      ],
      "name": "executeOperation",
      "outputs": [
        {
          "internalType": "bool",
          "name": "",
          "type": "bool"
        }
      ],
      "stateMutability": "nonpayable",
      "type": "function"
    },
    {
      "inputs": [],
      "name": "getGreeting",
      "outputs": [
        {
          "internalType": "string",
          "name": "",
          "type": "string"
        }
      ],
      "stateMutability": "pure",
      "type": "function"
    },
    {
      "inputs": [
        {
          "internalType": "address",
          "name": "asset",
          "type": "address"
        },
        {
          "internalType": "uint256",
          "name": "amount",
          "type": "uint256"
        },
        {
          "internalType": "string",
          "name": "direction",
          "type": "string"
        },
        {
          "internalType": "address",
          "name": "assetIn",
          "type": "address"
        },
        {
          "internalType": "address",
          "name": "assetOut",
          "type": "address"
        },
        {
          "internalType": "uint256",
          "name": "amountOut",
          "type": "uint256"
        }
      ],
      "name": "initiateFlashLoan",
      "outputs": [],
      "stateMutability": "nonpayable",
      "type": "function"
    },
    {
      "inputs": [],
      "name": "owner",
      "outputs": [
        {
          "internalType": "address",
          "name": "",
          "type": "address"
        }
      ],
      "stateMutability": "view",
      "type": "function"
    },
    {
      "inputs": [],
      "name": "pool",
      "outputs": [
        {
          "internalType": "contract IPool",
          "name": "",
          "type": "address"
        }
      ],
      "stateMutability": "view",
      "type": "function"
    },
    {
      "inputs": [],
      "name": "renounceOwnership",
      "outputs": [],
      "stateMutability": "nonpayable",
      "type": "function"
    },
    {
      "inputs": [
        {
          "internalType": "address",
          "name": "newOwner",
          "type": "address"
        }
      ],
      "name": "transferOwnership",
      "outputs": [],
      "stateMutability": "nonpayable",
      "type": "function"
    },
    {
      "stateMutability": "payable",
      "type": "receive"
    }
  ],
  "bytecode": "0x60c060409080825234620002185781816200137980380380916200002482856200021d565b83398101031262000218576200003a8162000257565b62000049602080930162000257565b600160009081556001600160a01b039290919083169081156200020057600180546001600160a01b03198116841790915586519285929183167f8be0079c531659141344cd1fd0a4f28419497f9722a3daafe3b4186f6b6457e08680a316908115620001ad5750838160049260805286519283809263026b1d5f60e01b82525afa918215620001a25780926200015f575b5050168060a052156200011d57505161110c90816200026d8239608051816102fd015260a05181818161022f01528181610427015281816106cd0152610c430152f35b606491519062461bcd60e51b82526004820152601b60248201527f506f6f6c2063616e6e6f74206265207a65726f206164647265737300000000006044820152fd5b9091508382813d83116200019a575b6200017a81836200021d565b810103126200019757506200018f9062000257565b3880620000da565b80fd5b503d6200016e565b8551903d90823e3d90fd5b62461bcd60e51b815260048101859052602860248201527f41646472657373657350726f76696465722063616e6e6f74206265207a65726f604482015267206164647265737360c01b6064820152608490fd5b8551631e4fbdf760e01b815260048101849052602490fd5b600080fd5b601f909101601f19168101906001600160401b038211908210176200024157604052565b634e487b7160e01b600052604160045260246000fd5b51906001600160a01b0382168203620002185756fe608080604052600436101561001a575b50361561001857005b005b600090813560e01c908163126cbe6014610c8e5750806316cba9d314610c7257806316f0115b14610c2d5780631b11d0ff146103b2578063715018a6146103555780638da5cb5b1461032c578063c72c4d10146102e7578063de05e5b514610185578063f2fde38b146100f55763fe50cc720361000f57346100f257806003193601126100f2576100ee6040516100b081610d4f565b601781527f48656c6c6f2c2041726269747261676520576f726c64210000000000000000006020820152604051918291602083526020830190610e16565b0390f35b80fd5b50346100f25760203660031901126100f25761010f610d1e565b610117610e56565b6001600160a01b0390811690811561016c57600154826bffffffffffffffffffffffff60a01b821617600155167f8be0079c531659141344cd1fd0a4f28419497f9722a3daafe3b4186f6b6457e0600080a380f35b604051631e4fbdf760e01b815260048101849052602490fd5b50346100f25760c03660031901126100f25761019f610d1e565b67ffffffffffffffff826044358281116102e3576101c1903690600401610dbf565b6101c9610d39565b906001600160a01b039060843582811691908290036102df5761020a9361022c926101f2610e56565b846040519687946080602087015260a0860190610e16565b92166040840152606083015260a435608083015203601f198101845283610d9d565b807f00000000000000000000000000000000000000000000000000000000000000001690813b156102db578361029596604051978895869485936310ac2ddf60e21b8552306004860152166024840152602435604484015260a0606484015260a4830190610e16565b82608483015203925af180156102d0576102ad578280f35b81116102bc5760405238808280f35b634e487b7160e01b82526041600452602482fd5b6040513d85823e3d90fd5b8380fd5b8480fd5b5080fd5b50346100f257806003193601126100f2576040517f00000000000000000000000000000000000000000000000000000000000000006001600160a01b03168152602090f35b50346100f257806003193601126100f2576001546040516001600160a01b039091168152602090f35b50346100f257806003193601126100f25761036e610e56565b600180546001600160a01b0319811690915581906001600160a01b03167f8be0079c531659141344cd1fd0a4f28419497f9722a3daafe3b4186f6b6457e08280a380f35b50346100f25760a03660031901126100f2576103cc610d1e565b6103d4610d39565b67ffffffffffffffff60843511610b9757366023608435011215610b97576084356004013567ffffffffffffffff81116102db576084350160248101913683116102df576002855414610c1b57600285557f00000000000000000000000000000000000000000000000000000000000000006001600160a01b03163303610be057306001600160a01b0390911603610b9b57608090608435900312610b9757602460843501359067ffffffffffffffff82116102db57602461049a926084350101610dbf565b6104a8604460843501610e82565b907fd978d755276b4d0ccc947318b006d6da9c570f55208fadd8a0009c90145b0d776104d8606460843501610e82565b9160208151910120730554e49535741505f544f5f5355534849535741560641b602060405161050681610d4f565b60148152015203610925576105306084803501356024356001600160a01b03848116908616610ef9565b506040516370a0823160e01b81523060048201526020816024816001600160a01b0386165afa90811561091a5785916108e8575b5060405163095ea7b360e01b815273d9e1ce17f2641f24ae83637ab66a2cca9c378b9f600482015260248101829052602081604481896001600160a01b0388165af180156108dd576108be575b5090918490604051906105c382610d81565b60028252602082019460403687376001600160a01b03166105e383610ec6565b526001600160a01b03166105f682610ee9565b526040519384916338ed173960e01b835260a48301946004840152608480350135602484015260a060448401525180945260c482019093835b8181106108995750508192935030606483015242608483015203818373d9e1ce17f2641f24ae83637ab66a2cca9c378b9f5af180156102d05761080e575b505b6024359060443582018092116107fa576040516370a0823160e01b81523060048201526001600160a01b03919091169190602081602481865afa80156107ef57829185916107ba575b501061076a5760405163095ea7b360e01b81527f00000000000000000000000000000000000000000000000000000000000000006001600160a01b03166004820152602481019190915291906020908390604490829085905af191821561075d5760019261072e575b5055602060405160018152f35b61074f9060203d602011610756575b6107478183610d9d565b810190610e96565b5038610721565b503d61073d565b50604051903d90823e3d90fd5b60405162461bcd60e51b815260206004820152602260248201527f496e73756666696369656e742062616c616e636520746f207265706179206c6f60448201526130b760f11b6064820152608490fd5b9150506020813d6020116107e7575b816107d660209383610d9d565b810103126102db57819051386106b8565b3d91506107c9565b6040513d86823e3d90fd5b634e487b7160e01b83526011600452602483fd5b3d8084833e61081d8183610d9d565b8101906020818303126102db5780519067ffffffffffffffff82116102df570181601f820112156102db5780519060208061085784610eae565b6108646040519182610d9d565b848152019260051b8201019283116102df57602001905b82821061088957505061066d565b815181526020918201910161087b565b85516001600160a01b031683526020958601958995508794509092019160010161062f565b6108d69060203d602011610756576107478183610d9d565b50386105b1565b6040513d88823e3d90fd5b90506020813d602011610912575b8161090360209383610d9d565b810103126102df575138610564565b3d91506108f6565b6040513d87823e3d90fd5b60405163095ea7b360e01b815273d9e1ce17f2641f24ae83637ab66a2cca9c378b9f60048201526024803590820152909190602081604481886001600160a01b0387165af1801561091a57610b78575b5060405161098281610d81565b60028152602081019060403683376001600160a01b0383166109a382610ec6565b526001600160a01b0384166109b782610ee9565b528560405180936338ed173960e01b825260a48201936024356004840152608480350135602484015260a060448401525180945260c482019093835b818110610b535750508192935030606483015242608483015203818373d9e1ce17f2641f24ae83637ab66a2cca9c378b9f5af1801561091a57610ac0575b506040516370a0823160e01b8152306004820152916020836024816001600160a01b0385165afa90811561091a578591610a8a575b610a849350608480350135926001600160a01b039081169116610ef9565b5061066f565b90506020833d602011610ab8575b81610aa560209383610d9d565b810103126102df57610a84925190610a66565b3d9150610a98565b3d8086833e610acf8183610d9d565b810190602081830312610b4f5780519067ffffffffffffffff8211610b4b570181601f82011215610b4f57805190602080610b0984610eae565b610b166040519182610d9d565b848152019260051b820101928311610b4b57602001905b828210610b3b575050610a31565b8151815260209182019101610b2d565b8680fd5b8580fd5b85516001600160a01b031683526020958601958b9550879450909201916001016109f3565b610b909060203d602011610756576107478183610d9d565b5038610975565b8280fd5b60405162461bcd60e51b815260206004820152601f60248201527f496e69746961746f72206d757374206265207468697320636f6e7472616374006044820152606490fd5b60405162461bcd60e51b815260206004820152601360248201527210d85b1b195c881b5d5cdd081899481c1bdbdb606a1b6044820152606490fd5b604051633ee5aeb560e01b8152600490fd5b50346100f257806003193601126100f2576040517f00000000000000000000000000000000000000000000000000000000000000006001600160a01b03168152602090f35b50346100f257806003193601126100f257602047604051908152f35b82346100f257602091826003193601126102e35782816024816001600160a01b03610cb7610d1e565b6370a0823160e01b8352306004840152165afa918215610d12578092610ce2575b5050604051908152f35b9091508282813d8311610d0b575b610cfa8183610d9d565b810103126100f25750518280610cd8565b503d610cf0565b604051903d90823e3d90fd5b600435906001600160a01b0382168203610d3457565b600080fd5b606435906001600160a01b0382168203610d3457565b6040810190811067ffffffffffffffff821117610d6b57604052565b634e487b7160e01b600052604160045260246000fd5b6060810190811067ffffffffffffffff821117610d6b57604052565b90601f8019910116810190811067ffffffffffffffff821117610d6b57604052565b81601f82011215610d345780359067ffffffffffffffff8211610d6b5760405192610df4601f8401601f191660200185610d9d565b82845260208383010111610d3457816000926020809301838601378301015290565b919082519283825260005b848110610e42575050826000602080949584010152601f8019910116010190565b602081830181015184830182015201610e21565b6001546001600160a01b03163303610e6a57565b60405163118cdaa760e01b8152336004820152602490fd5b35906001600160a01b0382168203610d3457565b90816020910312610d3457518015158103610d345790565b67ffffffffffffffff8111610d6b5760051b60200190565b805115610ed35760200190565b634e487b7160e01b600052603260045260246000fd5b805160011015610ed35760400190565b919260018060a01b038093169260409384519563095ea7b360e01b8752737a250d5630b4cf539739df2c5dacb4c659f2488d9283600489015281602489015260209560009887816044818d895af180156110cc576110af575b50949290889492885196610f6588610d81565b60028852888801938a368637610f7a89610ec6565b5282610f8589610ee9565b9116905288519687956338ed173960e01b875260a48701926004880152602487015260a060448701525180915260c48501929186905b8983831061108f5750505050508383809230606483015242608483015203925af1938415611084578094610ff1575b5050505090565b90919293503d8082843e6110058184610d9d565b82019183818403126102e35780519067ffffffffffffffff8211610b97570182601f820112156102e35780519161104761103e84610eae565b96519687610d9d565b828652848087019360051b8301019384116100f257508301905b828210611075575050505038808080610fea565b81518152908301908301611061565b8351903d90823e3d90fd5b8451821686528c9850899750948501949390930192600190910190610fbb565b6110c590883d8a11610756576107478183610d9d565b5038610f52565b89513d8c823e3d90fdfea2646970667358221220f330d8ba29e54be2e6e02645c7349d7951e00f33d230d662f95b8cd8a27c2d5464736f6c63430008140033",
  "linkReferences": {},
  "deployedLinkReferences": {}
}