{
  "_format": "hh-sol-artifact-1",
  "contractName": "ArbitrageBot",
  "sourceName": "contracts/ArbitrageBot.sol",
  "abi": [
    {
      "inputs": [
        {
          "internalType": "address",
          "name": "initialOwner",
          "type": "address"
        },
        {
          "internalType": "address",
          "name": "_addressesProvider",
          "type": "address"
        }
      ],
      "stateMutability": "nonpayable",
      "type": "constructor"
    },
    {
      "inputs": [
        {
          "internalType": "address",
          "name": "owner",
          "type": "address"
        }
      ],
      "name": "OwnableInvalidOwner",
      "type": "error"
    },
    {
      "inputs": [
        {
          "internalType": "address",
          "name": "account",
          "type": "address"
        }
      ],
      "name": "OwnableUnauthorizedAccount",
      "type": "error"
    },
    {
      "inputs": [],
      "name": "ReentrancyGuardReentrantCall",
      "type": "error"
    },
    {
      "anonymous": false,
      "inputs": [
        {
          "indexed": true,
          "internalType": "address",
          "name": "previousOwner",
          "type": "address"
        },
        {
          "indexed": true,
          "internalType": "address",
          "name": "newOwner",
          "type": "address"
        }
      ],
      "name": "OwnershipTransferred",
      "type": "event"
    },
    {
      "stateMutability": "payable",
      "type": "fallback"
    },
    {
      "inputs": [],
      "name": "addressesProvider",
      "outputs": [
        {
          "internalType": "contract IPoolAddressesProvider",
          "name": "",
          "type": "address"
        }
      ],
      "stateMutability": "view",
      "type": "function"
    },
    {
      "inputs": [],
      "name": "checkEtherBalance",
      "outputs": [
        {
          "internalType": "uint256",
          "name": "",
          "type": "uint256"
        }
      ],
      "stateMutability": "view",
      "type": "function"
    },
    {
      "inputs": [
        {
          "internalType": "address",
          "name": "tokenAddress",
          "type": "address"
        }
      ],
      "name": "checkTokenBalance",
      "outputs": [
        {
          "internalType": "uint256",
          "name": "",
          "type": "uint256"
        }
      ],
      "stateMutability": "view",
      "type": "function"
    },
    {
      "inputs": [
        {
          "internalType": "address",
          "name": "asset",
          "type": "address"
        },
        {
          "internalType": "uint256",
          "name": "amount",
          "type": "uint256"
        },
        {
          "internalType": "uint256",
          "name": "premium",
          "type": "uint256"
        },
        {
          "internalType": "address",
          "name": "initiator",
          "type": "address"
        },
        {
          "internalType": "bytes",
          "name": "params",
          "type": "bytes"
        }
      ],
      "name": "executeOperation",
      "outputs": [
        {
          "internalType": "bool",
          "name": "",
          "type": "bool"
        }
      ],
      "stateMutability": "nonpayable",
      "type": "function"
    },
    {
      "inputs": [],
      "name": "getGreeting",
      "outputs": [
        {
          "internalType": "string",
          "name": "",
          "type": "string"
        }
      ],
      "stateMutability": "pure",
      "type": "function"
    },
    {
      "inputs": [
        {
          "internalType": "address",
          "name": "asset",
          "type": "address"
        },
        {
          "internalType": "uint256",
          "name": "amount",
          "type": "uint256"
        },
        {
          "internalType": "string",
          "name": "direction",
          "type": "string"
        },
        {
          "internalType": "address",
          "name": "assetIn",
          "type": "address"
        },
        {
          "internalType": "address",
          "name": "assetOut",
          "type": "address"
        },
        {
          "internalType": "uint256",
          "name": "amountOut",
          "type": "uint256"
        }
      ],
      "name": "initiateFlashLoan",
      "outputs": [],
      "stateMutability": "nonpayable",
      "type": "function"
    },
    {
      "inputs": [],
      "name": "owner",
      "outputs": [
        {
          "internalType": "address",
          "name": "",
          "type": "address"
        }
      ],
      "stateMutability": "view",
      "type": "function"
    },
    {
      "inputs": [],
      "name": "pool",
      "outputs": [
        {
          "internalType": "contract IPool",
          "name": "",
          "type": "address"
        }
      ],
      "stateMutability": "view",
      "type": "function"
    },
    {
      "inputs": [],
      "name": "renounceOwnership",
      "outputs": [],
      "stateMutability": "nonpayable",
      "type": "function"
    },
    {
      "inputs": [
        {
          "internalType": "address",
          "name": "newOwner",
          "type": "address"
        }
      ],
      "name": "transferOwnership",
      "outputs": [],
      "stateMutability": "nonpayable",
      "type": "function"
    },
    {
      "stateMutability": "payable",
      "type": "receive"
    }
  ],
  "bytecode": "0x60c0604090808252346101fa578181610b04803803809161002082856101ff565b8339810103126101fa5761003381610238565b6100406020809301610238565b600160009081556001600160a01b039290919083169081156101e257600180546001600160a01b03198116841790915586519285929183167f8be0079c531659141344cd1fd0a4f28419497f9722a3daafe3b4186f6b6457e08680a31690811561018f5750838160049260805286519283809263026b1d5f60e01b82525afa918215610184578092610149575b5050168060a052156101075750516108b7908161024d82396080518161037d015260a0518181816102a0015281816104aa01526106cc0152f35b606491519062461bcd60e51b82526004820152601b60248201527f506f6f6c2063616e6e6f74206265207a65726f206164647265737300000000006044820152fd5b9091508382813d831161017d575b61016181836101ff565b8101031261017a575061017390610238565b38806100cd565b80fd5b503d610157565b8551903d90823e3d90fd5b62461bcd60e51b815260048101859052602860248201527f41646472657373657350726f76696465722063616e6e6f74206265207a65726f604482015267206164647265737360c01b6064820152608490fd5b8551631e4fbdf760e01b815260048101849052602490fd5b600080fd5b601f909101601f19168101906001600160401b0382119082101761022257604052565b634e487b7160e01b600052604160045260246000fd5b51906001600160a01b03821682036101fa5756fe608060408181526004918236101561001f575b505050361561001d57005b005b600090813560e01c908163126cbe60146107165750806316cba9d3146106fb57806316f0115b146106b75780631b11d0ff14610436578063715018a6146103d95780638da5cb5b146103b0578063c72c4d1014610368578063de05e5b5146101b4578063f2fde38b1461011f5763fe50cc7203610012573461011c578060031936011261011c575080519080820182811067ffffffffffffffff8211176101075761010393508152601782527f48656c6c6f2c2041726269747261676520576f726c6421000000000000000000602083015251918291602083526020830190610815565b0390f35b604184634e487b7160e01b6000525260246000fd5b80fd5b5091346101b05760203660031901126101b05761013a6107ac565b90610143610855565b6001600160a01b0391821692831561019a575050600154826bffffffffffffffffffffffff60a01b821617600155167f8be0079c531659141344cd1fd0a4f28419497f9722a3daafe3b4186f6b6457e0600080a380f35b51631e4fbdf760e01b8152908101849052602490fd5b8280fd5b509190346101b05760c03660031901126101b0576101d06107ac565b9167ffffffffffffffff60443581811161034d573660238201121561034d57808301358281116103555784518792601f199290610215601f83018516602001846107dd565b818352366024838301011161035157818592602460209301838601378301015261023d6107c7565b916001600160a01b039160843583811692919083900361034d5761027e9461029d93610267610855565b858b519788946080602087015260a0860190610815565b92168b840152606083015260a4356080830152039081018452836107dd565b807f00000000000000000000000000000000000000000000000000000000000000001690813b156103495783610304988851998a95869485936310ac2ddf60e21b8552308c860152166024840152602435604484015260a0606484015260a4830190610815565b82608483015203925af1801561033f5761031c578480f35b831161032c575052388080808480f35b634e487b7160e01b845260419052602483fd5b83513d87823e3d90fd5b8380fd5b8580fd5b8480fd5b634e487b7160e01b875260418452602487fd5b5090346103ac57816003193601126103ac57517f00000000000000000000000000000000000000000000000000000000000000006001600160a01b03168152602090f35b5080fd5b5090346103ac57816003193601126103ac5760015490516001600160a01b039091168152602090f35b503461011c578060031936011261011c576103f2610855565b600180546001600160a01b0319811690915581906001600160a01b03167f8be0079c531659141344cd1fd0a4f28419497f9722a3daafe3b4186f6b6457e08280a380f35b503461011c5760a036600319011261011c576104506107ac565b60249081359461045e6107c7565b9160843567ffffffffffffffff80821161060757366023830112156106075781840135908111610607573691018501116103515760028554146106a8576002855560018060a01b0390817f0000000000000000000000000000000000000000000000000000000000000000169384330361067057823091160361062e57604435880180981161061c57168551966370a0823160e01b8852308389015260209788818781865afa9081156106125790829188916105dd575b50106105905791856044928995948951978896879563095ea7b360e01b87528601528401525af1801561058657610553575b50600190555160018152f35b8381813d831161057f575b61056881836107dd565b810103126103ac57518015150361011c5738610547565b503d61055e565b83513d84823e3d90fd5b865162461bcd60e51b81528084018990526022818701527f496e73756666696369656e742062616c616e636520746f207265706179206c6f60448201526130b760f11b6064820152608490fd5b8092508a8092503d831161060b575b6105f681836107dd565b810103126106075781905138610515565b8680fd5b503d6105ec565b88513d89823e3d90fd5b634e487b7160e01b8652601183528486fd5b865162461bcd60e51b8152602081850152601f818701527f496e69746961746f72206d757374206265207468697320636f6e7472616374006044820152606490fd5b875162461bcd60e51b81526020818601526013818801527210d85b1b195c881b5d5cdd081899481c1bdbdb606a1b6044820152606490fd5b508451633ee5aeb560e01b8152fd5b5090346103ac57816003193601126103ac57517f00000000000000000000000000000000000000000000000000000000000000006001600160a01b03168152602090f35b5090346103ac57816003193601126103ac5751478152602090f35b84939150346101b05760209384600319360112610349578490829060249082906001600160a01b036107466107ac565b16906370a0823160e01b835230908301525afa9283156107a157809361076f575b505051908152f35b909192508382813d831161079a575b61078881836107dd565b8101031261011c575051908380610767565b503d61077e565b8251903d90823e3d90fd5b600435906001600160a01b03821682036107c257565b600080fd5b606435906001600160a01b03821682036107c257565b90601f8019910116810190811067ffffffffffffffff8211176107ff57604052565b634e487b7160e01b600052604160045260246000fd5b919082519283825260005b848110610841575050826000602080949584010152601f8019910116010190565b602081830181015184830182015201610820565b6001546001600160a01b0316330361086957565b60405163118cdaa760e01b8152336004820152602490fdfea2646970667358221220be37bd0883dcc74d79b46ae08734b4b3dcaa12adebe2ce061d36ba55f0160a2064736f6c63430008140033",
  "linkReferences": {},
  "deployedLinkReferences": {}
}