{
  "_format": "hh-sol-artifact-1",
  "contractName": "ArbitrageBot",
  "sourceName": "contracts/ArbitrageBot.sol",
  "abi": [
    {
      "inputs": [
        {
          "internalType": "address",
          "name": "initialOwner",
          "type": "address"
        },
        {
          "internalType": "address",
          "name": "addressesProvider",
          "type": "address"
        }
      ],
      "stateMutability": "nonpayable",
      "type": "constructor"
    },
    {
      "inputs": [
        {
          "internalType": "address",
          "name": "owner",
          "type": "address"
        }
      ],
      "name": "OwnableInvalidOwner",
      "type": "error"
    },
    {
      "inputs": [
        {
          "internalType": "address",
          "name": "account",
          "type": "address"
        }
      ],
      "name": "OwnableUnauthorizedAccount",
      "type": "error"
    },
    {
      "inputs": [],
      "name": "ReentrancyGuardReentrantCall",
      "type": "error"
    },
    {
      "anonymous": false,
      "inputs": [
        {
          "indexed": true,
          "internalType": "address",
          "name": "previousOwner",
          "type": "address"
        },
        {
          "indexed": true,
          "internalType": "address",
          "name": "newOwner",
          "type": "address"
        }
      ],
      "name": "OwnershipTransferred",
      "type": "event"
    },
    {
      "inputs": [],
      "name": "ADDRESSES_PROVIDER",
      "outputs": [
        {
          "internalType": "contract IPoolAddressesProvider",
          "name": "",
          "type": "address"
        }
      ],
      "stateMutability": "view",
      "type": "function"
    },
    {
      "inputs": [],
      "name": "POOL",
      "outputs": [
        {
          "internalType": "contract IPool",
          "name": "",
          "type": "address"
        }
      ],
      "stateMutability": "view",
      "type": "function"
    },
    {
      "inputs": [
        {
          "internalType": "address",
          "name": "asset",
          "type": "address"
        },
        {
          "internalType": "uint256",
          "name": "amount",
          "type": "uint256"
        },
        {
          "internalType": "uint256",
          "name": "premium",
          "type": "uint256"
        },
        {
          "internalType": "address",
          "name": "initiator",
          "type": "address"
        },
        {
          "internalType": "bytes",
          "name": "params",
          "type": "bytes"
        }
      ],
      "name": "executeOperation",
      "outputs": [
        {
          "internalType": "bool",
          "name": "",
          "type": "bool"
        }
      ],
      "stateMutability": "nonpayable",
      "type": "function"
    },
    {
      "inputs": [],
      "name": "getGreeting",
      "outputs": [
        {
          "internalType": "string",
          "name": "",
          "type": "string"
        }
      ],
      "stateMutability": "pure",
      "type": "function"
    },
    {
      "inputs": [
        {
          "internalType": "address",
          "name": "asset",
          "type": "address"
        },
        {
          "internalType": "uint256",
          "name": "amount",
          "type": "uint256"
        },
        {
          "internalType": "string",
          "name": "direction",
          "type": "string"
        },
        {
          "internalType": "address",
          "name": "assetIn",
          "type": "address"
        },
        {
          "internalType": "address",
          "name": "assetOut",
          "type": "address"
        },
        {
          "internalType": "uint256",
          "name": "AmountOut",
          "type": "uint256"
        }
      ],
      "name": "initiateFlashLoan",
      "outputs": [],
      "stateMutability": "nonpayable",
      "type": "function"
    },
    {
      "inputs": [],
      "name": "owner",
      "outputs": [
        {
          "internalType": "address",
          "name": "",
          "type": "address"
        }
      ],
      "stateMutability": "view",
      "type": "function"
    },
    {
      "inputs": [],
      "name": "renounceOwnership",
      "outputs": [],
      "stateMutability": "nonpayable",
      "type": "function"
    },
    {
      "inputs": [
        {
          "internalType": "address",
          "name": "newOwner",
          "type": "address"
        }
      ],
      "name": "transferOwnership",
      "outputs": [],
      "stateMutability": "nonpayable",
      "type": "function"
    }
  ],
  "bytecode": "0x60c06040523480156200001157600080fd5b5060405162001b7738038062001b778339810160408190526200003491620002ee565b6001600055816001600160a01b0381166200006a57604051631e4fbdf760e01b8152600060048201526024015b60405180910390fd5b6200007581620001f4565b506001600160a01b038116620000df5760405162461bcd60e51b815260206004820152602860248201527f41646472657373657350726f76696465722063616e6e6f74206265207a65726f604482015267206164647265737360c01b606482015260840162000061565b6001600160a01b03811660808190526040805163026b1d5f60e01b8152905163026b1d5f916004808201926020929091908290030181865afa1580156200012a573d6000803e3d6000fd5b505050506040513d601f19601f8201168201806040525081019062000150919062000326565b6001600160a01b031660a0819052620001ac5760405162461bcd60e51b815260206004820152601b60248201527f506f6f6c2063616e6e6f74206265207a65726f20616464726573730000000000604482015260640162000061565b60408051808201909152601581527f436f6e7472616374206465706c6f7965642062793a00000000000000000000006020820152620001ec903362000246565b5050620003ad565b600180546001600160a01b038381166001600160a01b0319831681179093556040519116919082907f8be0079c531659141344cd1fd0a4f28419497f9722a3daafe3b4186f6b6457e090600090a35050565b6200029382826040516024016200025f9291906200034b565b60408051601f198184030181529190526020810180516001600160e01b0390811663319af33360e01b179091526200029716565b5050565b620002ad81620002b060201b62000fc51760201c565b50565b60006a636f6e736f6c652e6c6f679050600080835160208501845afa505050565b80516001600160a01b0381168114620002e957600080fd5b919050565b600080604083850312156200030257600080fd5b6200030d83620002d1565b91506200031d60208401620002d1565b90509250929050565b6000602082840312156200033957600080fd5b6200034482620002d1565b9392505050565b604081526000835180604084015260005b818110156200037b57602081870181015160608684010152016200035c565b50600060608285018101919091526001600160a01b03949094166020840152601f01601f191690910190910192915050565b60805160a051611790620003e760003960008181610103015281816101a801528181610ca50152610f0e01526000609201526117906000f3fe608060405234801561001057600080fd5b50600436106100885760003560e01c80638da5cb5b1161005b5780638da5cb5b14610125578063de05e5b514610136578063f2fde38b14610149578063fe50cc721461015c57600080fd5b80630542975c1461008d5780631b11d0ff146100d1578063715018a6146100f45780637535d246146100fe575b600080fd5b6100b47f000000000000000000000000000000000000000000000000000000000000000081565b6040516001600160a01b0390911681526020015b60405180910390f35b6100e46100df366004611158565b61019b565b60405190151581526020016100c8565b6100fc610d9a565b005b6100b47f000000000000000000000000000000000000000000000000000000000000000081565b6001546001600160a01b03166100b4565b6100fc6101443660046112b9565b610dae565b6100fc610157366004611342565b610f87565b604080518082018252601781527f48656c6c6f2c2041726269747261676520576f726c6421000000000000000000602082015290516100c891906113ac565b6000336001600160a01b037f000000000000000000000000000000000000000000000000000000000000000016146102105760405162461bcd60e51b815260206004820152601360248201527210d85b1b195c881b5d5cdd081899481c1bdbdb606a1b60448201526064015b60405180910390fd5b6001600160a01b03841630146102685760405162461bcd60e51b815260206004820152601f60248201527f496e69746961746f72206d757374206265207468697320636f6e7472616374006044820152606401610207565b6102a66040518060400160405280601e81526020017f496e6974696174696e672045786563757465206f7065726174696f6e733a0000815250610fe6565b60008080806102b7868801886113bf565b60408051600280825260608201835295995093975091955093506000929060208301908036833701905050905083816000815181106102f8576102f8611429565b60200260200101906001600160a01b031690816001600160a01b031681525050828160018151811061032c5761032c611429565b6001600160a01b039092166020928302919091019091015260405163d06ca61f60e01b8152600090737a250d5630b4cf539739df2c5dacb4c659f2488d9063d06ca61f90610380908f908690600401611483565b600060405180830381865afa15801561039d573d6000803e3d6000fd5b505050506040513d6000823e601f3d908101601f191682016040526103c591908101906114a4565b905060006064826001815181106103de576103de611429565b6020026020010151605f6103f29190611560565b6103fc919061157d565b6040805180820190915260148152730554e49535741505f544f5f5355534849535741560641b6020918201528851908901209091507f268728aad894b2f3336b8ce74ff9292563a8f0aadf7052275fff636feba4f289016108055761047860405180606001604052806028815260200161170b60289139610fe6565b60405163095ea7b360e01b8152737a250d5630b4cf539739df2c5dacb4c659f2488d6004820152602481018e90526001600160a01b0387169063095ea7b3906044016020604051808303816000875af11580156104d9573d6000803e3d6000fd5b505050506040513d601f19601f820116820180604052508101906104fd919061159f565b6105435760405162461bcd60e51b8152602060048201526017602482015276155b9a5cddd85c08185c1c1c9bdd985b0819985a5b1959604a1b6044820152606401610207565b737a250d5630b4cf539739df2c5dacb4c659f2488d6001600160a01b03166338ed17398e838630426040518663ffffffff1660e01b815260040161058b9594939291906115c1565b6000604051808303816000875af11580156105aa573d6000803e3d6000fd5b505050506040513d6000823e601f3d908101601f191682016040526105d291908101906114a4565b506040516370a0823160e01b81523060048201526001600160a01b0386169063095ea7b39073d9e1ce17f2641f24ae83637ab66a2cca9c378b9f9083906370a0823190602401602060405180830381865afa158015610635573d6000803e3d6000fd5b505050506040513d601f19601f8201168201806040525081019061065991906115fd565b6040516001600160e01b031960e085901b1681526001600160a01b03909216600483015260248201526044016020604051808303816000875af11580156106a4573d6000803e3d6000fd5b505050506040513d601f19601f820116820180604052508101906106c8919061159f565b6107105760405162461bcd60e51b815260206004820152601960248201527814dd5cda1a5cddd85c08185c1c1c9bdd985b0819985a5b1959603a1b6044820152606401610207565b6040516370a0823160e01b815230600482015273d9e1ce17f2641f24ae83637ab66a2cca9c378b9f906338ed1739906001600160a01b038816906370a0823190602401602060405180830381865afa158015610770573d6000803e3d6000fd5b505050506040513d601f19601f8201168201806040525081019061079491906115fd565b838630426040518663ffffffff1660e01b81526004016107b89594939291906115c1565b6000604051808303816000875af11580156107d7573d6000803e3d6000fd5b505050506040513d6000823e601f3d908101601f191682016040526107ff91908101906114a4565b50610baf565b61082660405180606001604052806028815260200161173360289139610fe6565b60405163095ea7b360e01b815273d9e1ce17f2641f24ae83637ab66a2cca9c378b9f6004820152602481018e90526001600160a01b0387169063095ea7b3906044016020604051808303816000875af1158015610887573d6000803e3d6000fd5b505050506040513d601f19601f820116820180604052508101906108ab919061159f565b6108f35760405162461bcd60e51b815260206004820152601960248201527814dd5cda1a5cddd85c08185c1c1c9bdd985b0819985a5b1959603a1b6044820152606401610207565b73d9e1ce17f2641f24ae83637ab66a2cca9c378b9f6001600160a01b03166338ed17398e838630426040518663ffffffff1660e01b815260040161093b9594939291906115c1565b6000604051808303816000875af115801561095a573d6000803e3d6000fd5b505050506040513d6000823e601f3d908101601f1916820160405261098291908101906114a4565b506040516370a0823160e01b81523060048201526001600160a01b0386169063095ea7b390737a250d5630b4cf539739df2c5dacb4c659f2488d9083906370a0823190602401602060405180830381865afa1580156109e5573d6000803e3d6000fd5b505050506040513d601f19601f82011682018060405250810190610a0991906115fd565b6040516001600160e01b031960e085901b1681526001600160a01b03909216600483015260248201526044016020604051808303816000875af1158015610a54573d6000803e3d6000fd5b505050506040513d601f19601f82011682018060405250810190610a78919061159f565b610abe5760405162461bcd60e51b8152602060048201526017602482015276155b9a5cddd85c08185c1c1c9bdd985b0819985a5b1959604a1b6044820152606401610207565b6040516370a0823160e01b8152306004820152737a250d5630b4cf539739df2c5dacb4c659f2488d906338ed1739906001600160a01b038816906370a0823190602401602060405180830381865afa158015610b1e573d6000803e3d6000fd5b505050506040513d601f19601f82011682018060405250810190610b4291906115fd565b838630426040518663ffffffff1660e01b8152600401610b669594939291906115c1565b6000604051808303816000875af1158015610b85573d6000803e3d6000fd5b505050506040513d6000823e601f3d908101601f19168201604052610bad91908101906114a4565b505b6000610bbb8d8f611616565b9050808f6001600160a01b03166370a08231306040518263ffffffff1660e01b8152600401610bf991906001600160a01b0391909116815260200190565b602060405180830381865afa158015610c16573d6000803e3d6000fd5b505050506040513d601f19601f82011682018060405250810190610c3a91906115fd565b1015610c945760405162461bcd60e51b8152602060048201526024808201527f4e6f7420656e6f7567682062616c616e636520746f20726570617920746865206044820152633637b0b760e11b6064820152608401610207565b8e6001600160a01b031663095ea7b37f0000000000000000000000000000000000000000000000000000000000000000836040518363ffffffff1660e01b8152600401610cf69291906001600160a01b03929092168252602082015260400190565b6020604051808303816000875af1158015610d15573d6000803e3d6000fd5b505050506040513d601f19601f82011682018060405250810190610d39919061159f565b610d855760405162461bcd60e51b815260206004820152601760248201527f417070726f76616c20746f20504f4f4c206661696c65640000000000000000006044820152606401610207565b5060019e9d5050505050505050505050505050565b610da2611029565b610dac6000611056565b565b610db6611029565b610df56040518060400160405280602081526020017f496e6974696174696e6720666c617368206c6f616e20666f722061737365743a815250876110a8565b610e286040518060400160405280601181526020017020b6b7bab73a103932b8bab2b9ba32b21d60791b815250866110f1565b6001600160a01b038616610e7e5760405162461bcd60e51b815260206004820152601c60248201527f41737365742063616e6e6f74206265207a65726f2061646472657373000000006044820152606401610207565b60008511610ece5760405162461bcd60e51b815260206004820152601d60248201527f416d6f756e74206d7573742062652067726561746572207468616e20300000006044820152606401610207565b600084848484604051602001610ee79493929190611629565b60408051601f19818403018152908290526310ac2ddf60e21b825291506001600160a01b037f000000000000000000000000000000000000000000000000000000000000000016906342b0b77c90610f4c9030908b908b90879060009060040161165f565b600060405180830381600087803b158015610f6657600080fd5b505af1158015610f7a573d6000803e3d6000fd5b5050505050505050505050565b610f8f611029565b6001600160a01b038116610fb957604051631e4fbdf760e01b815260006004820152602401610207565b610fc281611056565b50565b60006a636f6e736f6c652e6c6f679050600080835160208501845afa505050565b610fc281604051602401610ffa91906113ac565b60408051601f198184030181529190526020810180516001600160e01b031663104c13eb60e21b179052611132565b6001546001600160a01b03163314610dac5760405163118cdaa760e01b8152336004820152602401610207565b600180546001600160a01b038381166001600160a01b0319831681179093556040519116919082907f8be0079c531659141344cd1fd0a4f28419497f9722a3daafe3b4186f6b6457e090600090a35050565b6110ed82826040516024016110be9291906116a8565b60408051601f198184030181529190526020810180516001600160e01b031663319af33360e01b179052611132565b5050565b6110ed82826040516024016111079291906116d2565b60408051601f198184030181529190526020810180516001600160e01b0316632d839cb360e21b1790525b610fc281610fc5565b610dac6116f4565b6001600160a01b0381168114610fc257600080fd5b60008060008060008060a0878903121561117157600080fd5b863561117c81611143565b95506020870135945060408701359350606087013561119a81611143565b9250608087013567ffffffffffffffff808211156111b757600080fd5b818901915089601f8301126111cb57600080fd5b8135818111156111da57600080fd5b8a60208285010111156111ec57600080fd5b6020830194508093505050509295509295509295565b634e487b7160e01b600052604160045260246000fd5b604051601f8201601f1916810167ffffffffffffffff8111828210171561124157611241611202565b604052919050565b600082601f83011261125a57600080fd5b813567ffffffffffffffff81111561127457611274611202565b611287601f8201601f1916602001611218565b81815284602083860101111561129c57600080fd5b816020850160208301376000918101602001919091529392505050565b60008060008060008060c087890312156112d257600080fd5b86356112dd81611143565b955060208701359450604087013567ffffffffffffffff81111561130057600080fd5b61130c89828a01611249565b945050606087013561131d81611143565b9250608087013561132d81611143565b8092505060a087013590509295509295509295565b60006020828403121561135457600080fd5b813561135f81611143565b9392505050565b6000815180845260005b8181101561138c57602081850181015186830182015201611370565b506000602082860101526020601f19601f83011685010191505092915050565b60208152600061135f6020830184611366565b600080600080608085870312156113d557600080fd5b843567ffffffffffffffff8111156113ec57600080fd5b6113f887828801611249565b945050602085013561140981611143565b9250604085013561141981611143565b9396929550929360600135925050565b634e487b7160e01b600052603260045260246000fd5b600081518084526020808501945080840160005b838110156114785781516001600160a01b031687529582019590820190600101611453565b509495945050505050565b82815260406020820152600061149c604083018461143f565b949350505050565b600060208083850312156114b757600080fd5b825167ffffffffffffffff808211156114cf57600080fd5b818501915085601f8301126114e357600080fd5b8151818111156114f5576114f5611202565b8060051b9150611506848301611218565b818152918301840191848101908884111561152057600080fd5b938501935b8385101561153e57845182529385019390850190611525565b98975050505050505050565b634e487b7160e01b600052601160045260246000fd5b80820281158282048414176115775761157761154a565b92915050565b60008261159a57634e487b7160e01b600052601260045260246000fd5b500490565b6000602082840312156115b157600080fd5b8151801515811461135f57600080fd5b85815284602082015260a0604082015260006115e060a083018661143f565b6001600160a01b0394909416606083015250608001529392505050565b60006020828403121561160f57600080fd5b5051919050565b808201808211156115775761157761154a565b60808152600061163c6080830187611366565b6001600160a01b0395861660208401529390941660408201526060015292915050565b6001600160a01b038681168252851660208201526040810184905260a06060820181905260009061169290830185611366565b905061ffff831660808301529695505050505050565b6040815260006116bb6040830185611366565b905060018060a01b03831660208301529392505050565b6040815260006116e56040830185611366565b90508260208301529392505050565b634e487b7160e01b600052605160045260246000fdfe457865637574696e6720556e697377617020746f2053757368697377617020617262697472616765457865637574696e672053757368697377617020746f20556e697377617020617262697472616765a264697066735822122019f41bf0a8b436043217060ad6845b29150387c8bff721f805f193629b2cd63264736f6c63430008140033",
  "linkReferences": {},
  "deployedLinkReferences": {}
}