{
  "_format": "hh-sol-artifact-1",
  "contractName": "ArbitrageBot",
  "sourceName": "contracts/ArbitrageBot.sol",
  "abi": [
    {
      "inputs": [
        {
          "internalType": "address",
          "name": "initialOwner",
          "type": "address"
        },
        {
          "internalType": "address",
          "name": "addressesProvider",
          "type": "address"
        }
      ],
      "stateMutability": "nonpayable",
      "type": "constructor"
    },
    {
      "inputs": [
        {
          "internalType": "address",
          "name": "owner",
          "type": "address"
        }
      ],
      "name": "OwnableInvalidOwner",
      "type": "error"
    },
    {
      "inputs": [
        {
          "internalType": "address",
          "name": "account",
          "type": "address"
        }
      ],
      "name": "OwnableUnauthorizedAccount",
      "type": "error"
    },
    {
      "inputs": [],
      "name": "ReentrancyGuardReentrantCall",
      "type": "error"
    },
    {
      "anonymous": false,
      "inputs": [
        {
          "indexed": true,
          "internalType": "address",
          "name": "previousOwner",
          "type": "address"
        },
        {
          "indexed": true,
          "internalType": "address",
          "name": "newOwner",
          "type": "address"
        }
      ],
      "name": "OwnershipTransferred",
      "type": "event"
    },
    {
      "inputs": [],
      "name": "ADDRESSES_PROVIDER",
      "outputs": [
        {
          "internalType": "contract IPoolAddressesProvider",
          "name": "",
          "type": "address"
        }
      ],
      "stateMutability": "view",
      "type": "function"
    },
    {
      "inputs": [],
      "name": "POOL",
      "outputs": [
        {
          "internalType": "contract IPool",
          "name": "",
          "type": "address"
        }
      ],
      "stateMutability": "view",
      "type": "function"
    },
    {
      "inputs": [
        {
          "internalType": "address",
          "name": "asset",
          "type": "address"
        },
        {
          "internalType": "uint256",
          "name": "amount",
          "type": "uint256"
        },
        {
          "internalType": "uint256",
          "name": "premium",
          "type": "uint256"
        },
        {
          "internalType": "address",
          "name": "initiator",
          "type": "address"
        },
        {
          "internalType": "bytes",
          "name": "params",
          "type": "bytes"
        }
      ],
      "name": "executeOperation",
      "outputs": [
        {
          "internalType": "bool",
          "name": "",
          "type": "bool"
        }
      ],
      "stateMutability": "nonpayable",
      "type": "function"
    },
    {
      "inputs": [],
      "name": "getGreeting",
      "outputs": [
        {
          "internalType": "string",
          "name": "",
          "type": "string"
        }
      ],
      "stateMutability": "pure",
      "type": "function"
    },
    {
      "inputs": [
        {
          "internalType": "address",
          "name": "asset",
          "type": "address"
        },
        {
          "internalType": "uint256",
          "name": "amount",
          "type": "uint256"
        },
        {
          "internalType": "string",
          "name": "direction",
          "type": "string"
        },
        {
          "internalType": "address",
          "name": "assetIn",
          "type": "address"
        },
        {
          "internalType": "address",
          "name": "assetOut",
          "type": "address"
        },
        {
          "internalType": "uint256",
          "name": "AmountOut",
          "type": "uint256"
        }
      ],
      "name": "initiateFlashLoan",
      "outputs": [],
      "stateMutability": "nonpayable",
      "type": "function"
    },
    {
      "inputs": [],
      "name": "owner",
      "outputs": [
        {
          "internalType": "address",
          "name": "",
          "type": "address"
        }
      ],
      "stateMutability": "view",
      "type": "function"
    },
    {
      "inputs": [],
      "name": "renounceOwnership",
      "outputs": [],
      "stateMutability": "nonpayable",
      "type": "function"
    },
    {
      "inputs": [
        {
          "internalType": "address",
          "name": "newOwner",
          "type": "address"
        }
      ],
      "name": "transferOwnership",
      "outputs": [],
      "stateMutability": "nonpayable",
      "type": "function"
    }
  ],
  "bytecode": "0x60c06040523480156200001157600080fd5b506040516200165d3803806200165d8339810160408190526200003491620002ee565b6001600055816001600160a01b0381166200006a57604051631e4fbdf760e01b8152600060048201526024015b60405180910390fd5b6200007581620001f4565b506001600160a01b038116620000df5760405162461bcd60e51b815260206004820152602860248201527f41646472657373657350726f76696465722063616e6e6f74206265207a65726f604482015267206164647265737360c01b606482015260840162000061565b6001600160a01b03811660808190526040805163026b1d5f60e01b8152905163026b1d5f916004808201926020929091908290030181865afa1580156200012a573d6000803e3d6000fd5b505050506040513d601f19601f8201168201806040525081019062000150919062000326565b6001600160a01b031660a0819052620001ac5760405162461bcd60e51b815260206004820152601b60248201527f506f6f6c2063616e6e6f74206265207a65726f20616464726573730000000000604482015260640162000061565b60408051808201909152601581527f436f6e7472616374206465706c6f7965642062793a00000000000000000000006020820152620001ec903362000246565b5050620003ad565b600180546001600160a01b038381166001600160a01b0319831681179093556040519116919082907f8be0079c531659141344cd1fd0a4f28419497f9722a3daafe3b4186f6b6457e090600090a35050565b6200029382826040516024016200025f9291906200034b565b60408051601f198184030181529190526020810180516001600160e01b0390811663319af33360e01b179091526200029716565b5050565b620002ad81620002b060201b62000b1c1760201c565b50565b60006a636f6e736f6c652e6c6f679050600080835160208501845afa505050565b80516001600160a01b0381168114620002e957600080fd5b919050565b600080604083850312156200030257600080fd5b6200030d83620002d1565b91506200031d60208401620002d1565b90509250929050565b6000602082840312156200033957600080fd5b6200034482620002d1565b9392505050565b604081526000835180604084015260005b818110156200037b57602081870181015160608684010152016200035c565b50600060608285018101919091526001600160a01b03949094166020840152601f01601f191690910190910192915050565b60805160a051611276620003e760003960008181610103015281816101a8015281816108470152610a6501526000609201526112766000f3fe608060405234801561001057600080fd5b50600436106100885760003560e01c80638da5cb5b1161005b5780638da5cb5b14610125578063de05e5b514610136578063f2fde38b14610149578063fe50cc721461015c57600080fd5b80630542975c1461008d5780631b11d0ff146100d1578063715018a6146100f45780637535d246146100fe575b600080fd5b6100b47f000000000000000000000000000000000000000000000000000000000000000081565b6040516001600160a01b0390911681526020015b60405180910390f35b6100e46100df366004610caf565b61019b565b60405190151581526020016100c8565b6100fc6108f1565b005b6100b47f000000000000000000000000000000000000000000000000000000000000000081565b6001546001600160a01b03166100b4565b6100fc610144366004610e10565b610905565b6100fc610157366004610e99565b610ade565b604080518082018252601781527f48656c6c6f2c2041726269747261676520576f726c6421000000000000000000602082015290516100c89190610f03565b6000336001600160a01b037f000000000000000000000000000000000000000000000000000000000000000016146102105760405162461bcd60e51b815260206004820152601360248201527210d85b1b195c881b5d5cdd081899481c1bdbdb606a1b60448201526064015b60405180910390fd5b6001600160a01b03841630146102685760405162461bcd60e51b815260206004820152601f60248201527f496e69746961746f72206d757374206265207468697320636f6e7472616374006044820152606401610207565b6102a66040518060400160405280601e81526020017f496e6974696174696e672045786563757465206f7065726174696f6e733a0000815250610b3d565b60008080806102b786880188610f16565b604080516002808252606082018352959950939750919550935083926000929160208301908036833701905050905084816000815181106102fa576102fa610f80565b60200260200101906001600160a01b031690816001600160a01b031681525050838160018151811061032e5761032e610f80565b6001600160a01b039092166020928302919091018201526040805180820190915260148152730554e49535741505f544f5f5355534849535741560641b908201528651908701207f268728aad894b2f3336b8ce74ff9292563a8f0aadf7052275fff636feba4f2890161055e576103bc6040518060600160405280602881526020016111f160289139610b3d565b6040516338ed173960e01b8152737a250d5630b4cf539739df2c5dacb4c659f2488d906338ed1739906103fb908f908690869030904290600401610f96565b6000604051808303816000875af115801561041a573d6000803e3d6000fd5b505050506040513d6000823e601f3d908101601f191682016040526104429190810190611007565b5073d9e1ce17f2641f24ae83637ab66a2cca9c378b9f6001600160a01b03166338ed17398260018151811061047957610479610f80565b60209081029190910101516040516370a0823160e01b81523060048201526001600160a01b03909116906370a0823190602401602060405180830381865afa1580156104c9573d6000803e3d6000fd5b505050506040513d601f19601f820116820180604052508101906104ed91906110ad565b848430426040518663ffffffff1660e01b8152600401610511959493929190610f96565b6000604051808303816000875af1158015610530573d6000803e3d6000fd5b505050506040513d6000823e601f3d908101601f191682016040526105589190810190611007565b5061071d565b61057f60405180606001604052806028815260200161121960289139610b3d565b6040516338ed173960e01b815273d9e1ce17f2641f24ae83637ab66a2cca9c378b9f906338ed1739906105be908f908690869030904290600401610f96565b6000604051808303816000875af11580156105dd573d6000803e3d6000fd5b505050506040513d6000823e601f3d908101601f191682016040526106059190810190611007565b50737a250d5630b4cf539739df2c5dacb4c659f2488d6001600160a01b03166338ed17398260018151811061063c5761063c610f80565b60209081029190910101516040516370a0823160e01b81523060048201526001600160a01b03909116906370a0823190602401602060405180830381865afa15801561068c573d6000803e3d6000fd5b505050506040513d601f19601f820116820180604052508101906106b091906110ad565b848430426040518663ffffffff1660e01b81526004016106d4959493929190610f96565b6000604051808303816000875af11580156106f3573d6000803e3d6000fd5b505050506040513d6000823e601f3d908101601f1916820160405261071b9190810190611007565b505b60006107298c8e6110c6565b905060008e6001600160a01b03166370a08231306040518263ffffffff1660e01b815260040161076891906001600160a01b0391909116815260200190565b602060405180830381865afa158015610785573d6000803e3d6000fd5b505050506040513d601f19601f820116820180604052508101906107a991906110ad565b90506107da6040518060400160405280600d81526020016c20b6b7bab73a1037bbb4b7339d60991b81525083610b80565b818110156108365760405162461bcd60e51b8152602060048201526024808201527f4e6f7420656e6f7567682062616c616e636520746f20726570617920746865206044820152633637b0b760e11b6064820152608401610207565b8e6001600160a01b031663095ea7b37f0000000000000000000000000000000000000000000000000000000000000000846040518363ffffffff1660e01b81526004016108989291906001600160a01b03929092168252602082015260400190565b6020604051808303816000875af11580156108b7573d6000803e3d6000fd5b505050506040513d601f19601f820116820180604052508101906108db91906110ed565b5060019f9e505050505050505050505050505050565b6108f9610bc9565b6109036000610bf6565b565b61090d610bc9565b61094c6040518060400160405280602081526020017f496e6974696174696e6720666c617368206c6f616e20666f722061737365743a81525087610c48565b61097f6040518060400160405280601181526020017020b6b7bab73a103932b8bab2b9ba32b21d60791b81525086610b80565b6001600160a01b0386166109d55760405162461bcd60e51b815260206004820152601c60248201527f41737365742063616e6e6f74206265207a65726f2061646472657373000000006044820152606401610207565b60008511610a255760405162461bcd60e51b815260206004820152601d60248201527f416d6f756e74206d7573742062652067726561746572207468616e20300000006044820152606401610207565b600084848484604051602001610a3e949392919061110f565b60408051601f19818403018152908290526310ac2ddf60e21b825291506001600160a01b037f000000000000000000000000000000000000000000000000000000000000000016906342b0b77c90610aa39030908b908b908790600090600401611145565b600060405180830381600087803b158015610abd57600080fd5b505af1158015610ad1573d6000803e3d6000fd5b5050505050505050505050565b610ae6610bc9565b6001600160a01b038116610b1057604051631e4fbdf760e01b815260006004820152602401610207565b610b1981610bf6565b50565b60006a636f6e736f6c652e6c6f679050600080835160208501845afa505050565b610b1981604051602401610b519190610f03565b60408051601f198184030181529190526020810180516001600160e01b031663104c13eb60e21b179052610c89565b610bc58282604051602401610b9692919061118e565b60408051601f198184030181529190526020810180516001600160e01b0316632d839cb360e21b179052610c89565b5050565b6001546001600160a01b031633146109035760405163118cdaa760e01b8152336004820152602401610207565b600180546001600160a01b038381166001600160a01b0319831681179093556040519116919082907f8be0079c531659141344cd1fd0a4f28419497f9722a3daafe3b4186f6b6457e090600090a35050565b610bc58282604051602401610c5e9291906111b0565b60408051601f198184030181529190526020810180516001600160e01b031663319af33360e01b1790525b610b1981610b1c565b6109036111da565b6001600160a01b0381168114610b1957600080fd5b60008060008060008060a08789031215610cc857600080fd5b8635610cd381610c9a565b955060208701359450604087013593506060870135610cf181610c9a565b9250608087013567ffffffffffffffff80821115610d0e57600080fd5b818901915089601f830112610d2257600080fd5b813581811115610d3157600080fd5b8a6020828501011115610d4357600080fd5b6020830194508093505050509295509295509295565b634e487b7160e01b600052604160045260246000fd5b604051601f8201601f1916810167ffffffffffffffff81118282101715610d9857610d98610d59565b604052919050565b600082601f830112610db157600080fd5b813567ffffffffffffffff811115610dcb57610dcb610d59565b610dde601f8201601f1916602001610d6f565b818152846020838601011115610df357600080fd5b816020850160208301376000918101602001919091529392505050565b60008060008060008060c08789031215610e2957600080fd5b8635610e3481610c9a565b955060208701359450604087013567ffffffffffffffff811115610e5757600080fd5b610e6389828a01610da0565b9450506060870135610e7481610c9a565b92506080870135610e8481610c9a565b8092505060a087013590509295509295509295565b600060208284031215610eab57600080fd5b8135610eb681610c9a565b9392505050565b6000815180845260005b81811015610ee357602081850181015186830182015201610ec7565b506000602082860101526020601f19601f83011685010191505092915050565b602081526000610eb66020830184610ebd565b60008060008060808587031215610f2c57600080fd5b843567ffffffffffffffff811115610f4357600080fd5b610f4f87828801610da0565b9450506020850135610f6081610c9a565b92506040850135610f7081610c9a565b9396929550929360600135925050565b634e487b7160e01b600052603260045260246000fd5b600060a082018783526020878185015260a0604085015281875180845260c086019150828901935060005b81811015610fe65784516001600160a01b031683529383019391830191600101610fc1565b50506001600160a01b03969096166060850152505050608001529392505050565b6000602080838503121561101a57600080fd5b825167ffffffffffffffff8082111561103257600080fd5b818501915085601f83011261104657600080fd5b81518181111561105857611058610d59565b8060051b9150611069848301610d6f565b818152918301840191848101908884111561108357600080fd5b938501935b838510156110a157845182529385019390850190611088565b98975050505050505050565b6000602082840312156110bf57600080fd5b5051919050565b808201808211156110e757634e487b7160e01b600052601160045260246000fd5b92915050565b6000602082840312156110ff57600080fd5b81518015158114610eb657600080fd5b6080815260006111226080830187610ebd565b6001600160a01b0395861660208401529390941660408201526060015292915050565b6001600160a01b038681168252851660208201526040810184905260a06060820181905260009061117890830185610ebd565b905061ffff831660808301529695505050505050565b6040815260006111a16040830185610ebd565b90508260208301529392505050565b6040815260006111c36040830185610ebd565b905060018060a01b03831660208301529392505050565b634e487b7160e01b600052605160045260246000fdfe457865637574696e6720556e697377617020746f2053757368697377617020617262697472616765457865637574696e672053757368697377617020746f20556e697377617020617262697472616765a2646970667358221220b91b84c719aea2bda88500c14505ea6bb65a9c3ee30e9e407d5e35dfb909deac64736f6c63430008140033",
  "linkReferences": {},
  "deployedLinkReferences": {}
}