{
  "_format": "hh-sol-artifact-1",
  "contractName": "ArbitrageBot",
  "sourceName": "contracts/ArbitrageBot.sol",
  "abi": [
    {
      "inputs": [
        {
          "internalType": "address",
          "name": "initialOwner",
          "type": "address"
        },
        {
          "internalType": "address",
          "name": "addressesProvider",
          "type": "address"
        }
      ],
      "stateMutability": "nonpayable",
      "type": "constructor"
    },
    {
      "inputs": [
        {
          "internalType": "address",
          "name": "owner",
          "type": "address"
        }
      ],
      "name": "OwnableInvalidOwner",
      "type": "error"
    },
    {
      "inputs": [
        {
          "internalType": "address",
          "name": "account",
          "type": "address"
        }
      ],
      "name": "OwnableUnauthorizedAccount",
      "type": "error"
    },
    {
      "inputs": [],
      "name": "ReentrancyGuardReentrantCall",
      "type": "error"
    },
    {
      "anonymous": false,
      "inputs": [
        {
          "indexed": true,
          "internalType": "address",
          "name": "previousOwner",
          "type": "address"
        },
        {
          "indexed": true,
          "internalType": "address",
          "name": "newOwner",
          "type": "address"
        }
      ],
      "name": "OwnershipTransferred",
      "type": "event"
    },
    {
      "inputs": [],
      "name": "ADDRESSES_PROVIDER",
      "outputs": [
        {
          "internalType": "contract IPoolAddressesProvider",
          "name": "",
          "type": "address"
        }
      ],
      "stateMutability": "view",
      "type": "function"
    },
    {
      "inputs": [],
      "name": "POOL",
      "outputs": [
        {
          "internalType": "contract IPool",
          "name": "",
          "type": "address"
        }
      ],
      "stateMutability": "view",
      "type": "function"
    },
    {
      "inputs": [
        {
          "internalType": "address",
          "name": "tokenAddress",
          "type": "address"
        }
      ],
      "name": "checkTokenBalance",
      "outputs": [
        {
          "internalType": "uint256",
          "name": "",
          "type": "uint256"
        }
      ],
      "stateMutability": "view",
      "type": "function"
    },
    {
      "inputs": [
        {
          "internalType": "address",
          "name": "asset",
          "type": "address"
        },
        {
          "internalType": "uint256",
          "name": "amount",
          "type": "uint256"
        },
        {
          "internalType": "uint256",
          "name": "premium",
          "type": "uint256"
        },
        {
          "internalType": "address",
          "name": "initiator",
          "type": "address"
        },
        {
          "internalType": "bytes",
          "name": "params",
          "type": "bytes"
        }
      ],
      "name": "executeOperation",
      "outputs": [
        {
          "internalType": "bool",
          "name": "",
          "type": "bool"
        }
      ],
      "stateMutability": "nonpayable",
      "type": "function"
    },
    {
      "inputs": [],
      "name": "getGreeting",
      "outputs": [
        {
          "internalType": "string",
          "name": "",
          "type": "string"
        }
      ],
      "stateMutability": "pure",
      "type": "function"
    },
    {
      "inputs": [
        {
          "internalType": "address",
          "name": "asset",
          "type": "address"
        },
        {
          "internalType": "uint256",
          "name": "amount",
          "type": "uint256"
        },
        {
          "internalType": "string",
          "name": "direction",
          "type": "string"
        },
        {
          "internalType": "address",
          "name": "assetIn",
          "type": "address"
        },
        {
          "internalType": "address",
          "name": "assetOut",
          "type": "address"
        },
        {
          "internalType": "uint256",
          "name": "AmountOut",
          "type": "uint256"
        }
      ],
      "name": "initiateFlashLoan",
      "outputs": [],
      "stateMutability": "nonpayable",
      "type": "function"
    },
    {
      "inputs": [],
      "name": "owner",
      "outputs": [
        {
          "internalType": "address",
          "name": "",
          "type": "address"
        }
      ],
      "stateMutability": "view",
      "type": "function"
    },
    {
      "inputs": [],
      "name": "renounceOwnership",
      "outputs": [],
      "stateMutability": "nonpayable",
      "type": "function"
    },
    {
      "inputs": [
        {
          "internalType": "address",
          "name": "newOwner",
          "type": "address"
        }
      ],
      "name": "transferOwnership",
      "outputs": [],
      "stateMutability": "nonpayable",
      "type": "function"
    }
  ],
  "bytecode": "0x60c0604081815234620002e5578082620016068038038091620000238285620002ea565b833981010312620002e557620000398262000324565b62000048602080940162000324565b60016000908155916001600160a01b0391908216908115620002cd57600180546001600160a01b03198116841790915585519284929183167f8be0079c531659141344cd1fd0a4f28419497f9722a3daafe3b4186f6b6457e08780a3169081156200027a5750848160049260805285519283809263026b1d5f60e01b82525afa908115620002705783916200022f575b50168060a05215620001eb578151928383016001600160401b03811185821017620001d7578352601584527f436f6e7472616374206465706c6f7965642062793a00000000000000000000008185015282518181019163319af33360e01b8352846024830152855195866064840152845b878110620001c2575050506200018360848287868381999a84010152336044830152601f80199101168101036064810184520182620002ea565b51906a636f6e736f6c652e6c6f675afa50516112cc90816200033a823960805181610c21015260a0518181816102f101528181610463015261055c0152f35b81810183015184820160840152820162000149565b634e487b7160e01b83526041600452602483fd5b815162461bcd60e51b815260048101849052601b60248201527f506f6f6c2063616e6e6f74206265207a65726f206164647265737300000000006044820152606490fd5b90508481813d831162000268575b620002498183620002ea565b8101031262000264576200025d9062000324565b38620000d8565b8280fd5b503d6200023d565b84513d85823e3d90fd5b62461bcd60e51b815260048101869052602860248201527f41646472657373657350726f76696465722063616e6e6f74206265207a65726f604482015267206164647265737360c01b6064820152608490fd5b8451631e4fbdf760e01b815260048101859052602490fd5b600080fd5b601f909101601f19168101906001600160401b038211908210176200030e57604052565b634e487b7160e01b600052604160045260246000fd5b51906001600160a01b0382168203620002e55756fe60806040818152600436101561001457600080fd5b600091823560e01c9081630542975c14610c0d57508063126cbe6014610b795780631b11d0ff146104f2578063715018a6146104925780637535d2461461044f5780638da5cb5b14610427578063de05e5b514610177578063f2fde38b146100e85763fe50cc721461008557600080fd5b346100e457816003193601126100e45780516100e0916100a482610c81565b601782527f48656c6c6f2c2041726269747261676520576f726c6421000000000000000000602083015251918291602083526020830190610d48565b0390f35b5080fd5b50346100e45760203660031901126100e457610102610c50565b61010a610d88565b6001600160a01b039081169182156101605750600154826bffffffffffffffffffffffff60a01b821617600155167f8be0079c531659141344cd1fd0a4f28419497f9722a3daafe3b4186f6b6457e0600080a380f35b51631e4fbdf760e01b815260048101849052602490fd5b50346100e45760c03660031901126100e457610191610c50565b9067ffffffffffffffff604435818111610423576101b3903690600401610cf1565b906101bc610c6b565b6001600160a01b0360843581811694929085900361041f5785946101de610d88565b8551916101ea83610c81565b6020918284527f496e6974696174696e6720666c617368206c6f616e20666f722061737365743a838501528a80895195868861023e8883019363319af33360e01b855260249e8f8501526064840190610d48565b9e169d8e6044830152039661025b601f1998898101835282610ccf565b51906a636f6e736f6c652e6c6f675afa5088519561027887610c81565b601187527020b6b7bab73a103932b8bab2b9ba32b21d60791b848801526102a18935809861123e565b8a156103dc57861561039957926102ef928c979592876102d0608099978e519a8b9687015260a0860190610d48565b92168c840152606083015260a435608083015203908101855284610ccf565b7f00000000000000000000000000000000000000000000000000000000000000001690813b156103955783610351988851998a95869485936310ac2ddf60e21b85523060048601528b850152604484015260a0606484015260a4830190610d48565b82608483015203925af1801561038b57610369578480f35b8311610379575052388080808480f35b634e487b7160e01b8452604160045283fd5b83513d87823e3d90fd5b8380fd5b895162461bcd60e51b815260048101859052601d818b01527f416d6f756e74206d7573742062652067726561746572207468616e20300000006044820152606490fd5b895162461bcd60e51b815260048101859052601c818b01527f41737365742063616e6e6f74206265207a65726f2061646472657373000000006044820152606490fd5b8780fd5b8480fd5b50346100e457816003193601126100e45760015490516001600160a01b039091168152602090f35b50346100e457816003193601126100e457517f00000000000000000000000000000000000000000000000000000000000000006001600160a01b03168152602090f35b82346104ef57806003193601126104ef576104ab610d88565b600180546001600160a01b0319811690915581906001600160a01b03167f8be0079c531659141344cd1fd0a4f28419497f9722a3daafe3b4186f6b6457e08280a380f35b80fd5b50346100e45760a03660031901126100e45761050c610c50565b610514610c6b565b926084359367ffffffffffffffff92838611610b755736602387011215610b7557856004013584811161039557860160249485820190368211610af55760018060a01b0392837f00000000000000000000000000000000000000000000000000000000000000001695863303610b3c578430911603610af957896080910312610af55786890135908111610af5576105b0919089018701610cf1565b966105bd60448201610db4565b82806105cb60648501610db4565b938b516020809d01208c8c516105e081610c81565b60148152730554e49535741505f544f5f5355534849535741560641b910152608491907fd978d755276b4d0ccc947318b006d6da9c570f55208fadd8a0009c90145b0d77036109de5701359316911661068b610647610642858b35868661105f565b610dc8565b518a5161065381610cb3565b602281527f42555920494e20554e495357415020616e6f7574204f7574206f6620455448208d8201526101d160f51b8c82015261123e565b88516370a0823160e01b8152306004820152918a838a81845afa9283156109d45788936109a3575b50926106c6926106429261070b95610e2b565b5187516106d281610cb3565b8781527f53454c4c20494e2053555348495357415020616d6f75744f7574206f662044418a82015263024901d160e51b8982015261123e565b8380886107696107778a5161071f81610c81565b601881527f546f6b656e2042616c616e636520616674657220737761700000000000000000848201528b519283918583019563104c13eb60e21b87528d8401526044830190610d48565b03601f198101835282610ccf565b51906a636f6e736f6c652e6c6f675afa5085519161079483610c81565b601083526f30b6b7bab73a103137b93937bbb2b21d60811b888401526107bc8635809461123e565b604435808401809411610990576107f19088516107d881610c81565b6008815267383932b6b4bab69d60c11b8b82015261123e565b61081e83885161080081610c81565b600d81526c30b6b7bab73a1037bbb4b7339d60991b8b82015261123e565b169185516370a0823160e01b815230600482015287818781875afa908115610986579083918691610955575b5010610907579060448792858851958694859363095ea7b360e01b85526004850152898401525af19182156108fc57916108cf575b501561088d57505160018152f35b60179060649392519262461bcd60e51b845260048401528201527f417070726f76616c20746f20504f4f4c206661696c65640000000000000000006044820152fd5b6108ef9150843d86116108f5575b6108e78183610ccf565b810190610e13565b3861087f565b503d6108dd565b8451903d90823e3d90fd5b6084878688519162461bcd60e51b83526004830152808201527f4e6f7420656e6f7567682062616c616e636520746f20726570617920746865206044820152633637b0b760e11b6064820152fd5b809250898092503d831161097f575b61096e8183610ccf565b81010312610423578290513861084a565b503d610964565b87513d87823e3d90fd5b634e487b7160e01b865260116004528686fd5b9092508a81813d83116109cd575b6109bb8183610ccf565b8101031261041f57519161070b6106b3565b503d6109b1565b8a513d8a823e3d90fd5b013593169116610a3f6109f7610642858b358686610e2b565b518a51610a0381610cb3565b602681527f42555920494e2053555348495357415020616d6f756e744f75742066726f6d208d82015265022aa24101d160d51b8c82015261123e565b88516370a0823160e01b8152306004820152918a838a81845afa9283156109d4578893610ac4575b5092610a7a9261064292610abf9561105f565b518751610a8681610cb3565b8781527f53454c4c20494e20554e495357415020616d6f756e744f75742066726f6d20448a82015263020a49d160e51b8982015261123e565b61070b565b9092508a81813d8311610aee575b610adc8183610ccf565b8101031261041f575191610abf610a67565b503d610ad2565b8580fd5b885162461bcd60e51b815260206004820152601f818a01527f496e69746961746f72206d757374206265207468697320636f6e7472616374006044820152606490fd5b895162461bcd60e51b8152602060048201526013818b01527210d85b1b195c881b5d5cdd081899481c1bdbdb606a1b6044820152606490fd5b8280fd5b5090346104ef57602091826003193601126100e4576024836001600160a01b03610ba1610c50565b168351928380926370a0823160e01b82523060048301525afa928315610c02578093610bd0575b505051908152f35b909192508382813d8311610bfb575b610be98183610ccf565b810103126104ef575051903880610bc8565b503d610bdf565b8251903d90823e3d90fd5b8390346100e457816003193601126100e4577f00000000000000000000000000000000000000000000000000000000000000006001600160a01b03168152602090f35b600435906001600160a01b0382168203610c6657565b600080fd5b606435906001600160a01b0382168203610c6657565b6040810190811067ffffffffffffffff821117610c9d57604052565b634e487b7160e01b600052604160045260246000fd5b6060810190811067ffffffffffffffff821117610c9d57604052565b90601f8019910116810190811067ffffffffffffffff821117610c9d57604052565b81601f82011215610c665780359067ffffffffffffffff8211610c9d5760405192610d26601f8401601f191660200185610ccf565b82845260208383010111610c6657816000926020809301838601378301015290565b919082519283825260005b848110610d74575050826000602080949584010152601f8019910116010190565b602081830181015184830182015201610d53565b6001546001600160a01b03163303610d9c57565b60405163118cdaa760e01b8152336004820152602490fd5b35906001600160a01b0382168203610c6657565b805160011015610dd85760400190565b634e487b7160e01b600052603260045260246000fd5b805115610dd85760200190565b67ffffffffffffffff8111610c9d5760051b60200190565b90816020910312610c6657518015158103610c665790565b919092604092835190610e3d82610cb3565b600282526020938483019186368437610e5584610dee565b6001600160a01b03918216908190529781610e6f86610dc8565b91169052868051610e7f81610cb3565b60028152873691013786519363095ea7b360e01b855273d9e1ce17f2641f24ae83637ab66a2cca9c378b9f9485600482015283602482015287816044816000809e5af1908115611055578a91611038575b50156110025794929088949288519687956338ed173960e01b875260a48701926004880152602487015260a060448701525180915260c48501929186905b89838310610fe25750505050508383809230606483015242608483015203925af1938415610fd7578094610f44575b5050505090565b90919293503d8082843e610f588184610ccf565b82019183818403126100e45780519067ffffffffffffffff8211610b75570182601f820112156100e457805191610f9a610f9184610dfb565b96519687610ccf565b828652848087019360051b8301019384116104ef57508301905b828210610fc8575050505038808080610f3d565b81518152908301908301610fb4565b8351903d90823e3d90fd5b8451821686528c9850899750948501949390930192600190910190610f0e565b875162461bcd60e51b815260048101889052600f60248201526e105c1c1c9bdd985b0819985a5b1959608a1b6044820152606490fd5b61104f9150883d8a116108f5576108e78183610ccf565b38610ed0565b89513d8c823e3d90fd5b91909260409283519061107182610cb3565b60028252602093848301918636843761108984610dee565b6001600160a01b039182169081905297816110a386610dc8565b911690528680516110b381610cb3565b60028152873691013786519363095ea7b360e01b8552737a250d5630b4cf539739df2c5dacb4c659f2488d9485600482015283602482015287816044816000809e5af1908115611055578a91611221575b50156110025794929088949288519687956338ed173960e01b875260a48701926004880152602487015260a060448701525180915260c48501929186905b898383106112015750505050508383809230606483015242608483015203925af1938415610fd7578094611177575050505090565b90919293503d8082843e61118b8184610ccf565b82019183818403126100e45780519067ffffffffffffffff8211610b75570182601f820112156100e4578051916111c4610f9184610dfb565b828652848087019360051b8301019384116104ef57508301905b8282106111f2575050505038808080610f3d565b815181529083019083016111de565b8451821686528c9850899750948501949390930192600190910190611142565b6112389150883d8a116108f5576108e78183610ccf565b38611104565b600091908291611283604051809261126f6020830195632d839cb360e21b8752604060248501526064840190610d48565b90604483015203601f198101835282610ccf565b51906a636f6e736f6c652e6c6f675afa5056fea264697066735822122003edc4e8bd06a89060a5826484665e7ad5133bcfe5e6c52529ab6a68286dedf464736f6c63430008140033",
  "linkReferences": {},
  "deployedLinkReferences": {}
}