{
  "_format": "hh-sol-artifact-1",
  "contractName": "ArbitrageBot",
  "sourceName": "contracts/ArbitrageBot.sol",
  "abi": [
    {
      "inputs": [
        {
          "internalType": "address",
          "name": "initialOwner",
          "type": "address"
        },
        {
          "internalType": "address",
          "name": "addressesProvider",
          "type": "address"
        }
      ],
      "stateMutability": "nonpayable",
      "type": "constructor"
    },
    {
      "inputs": [
        {
          "internalType": "address",
          "name": "owner",
          "type": "address"
        }
      ],
      "name": "OwnableInvalidOwner",
      "type": "error"
    },
    {
      "inputs": [
        {
          "internalType": "address",
          "name": "account",
          "type": "address"
        }
      ],
      "name": "OwnableUnauthorizedAccount",
      "type": "error"
    },
    {
      "inputs": [],
      "name": "ReentrancyGuardReentrantCall",
      "type": "error"
    },
    {
      "anonymous": false,
      "inputs": [
        {
          "indexed": true,
          "internalType": "address",
          "name": "previousOwner",
          "type": "address"
        },
        {
          "indexed": true,
          "internalType": "address",
          "name": "newOwner",
          "type": "address"
        }
      ],
      "name": "OwnershipTransferred",
      "type": "event"
    },
    {
      "inputs": [],
      "name": "ADDRESSES_PROVIDER",
      "outputs": [
        {
          "internalType": "contract IPoolAddressesProvider",
          "name": "",
          "type": "address"
        }
      ],
      "stateMutability": "view",
      "type": "function"
    },
    {
      "inputs": [],
      "name": "POOL",
      "outputs": [
        {
          "internalType": "contract IPool",
          "name": "",
          "type": "address"
        }
      ],
      "stateMutability": "view",
      "type": "function"
    },
    {
      "inputs": [
        {
          "internalType": "address",
          "name": "asset",
          "type": "address"
        },
        {
          "internalType": "uint256",
          "name": "amount",
          "type": "uint256"
        },
        {
          "internalType": "uint256",
          "name": "premium",
          "type": "uint256"
        },
        {
          "internalType": "address",
          "name": "initiator",
          "type": "address"
        },
        {
          "internalType": "bytes",
          "name": "params",
          "type": "bytes"
        }
      ],
      "name": "executeOperation",
      "outputs": [
        {
          "internalType": "bool",
          "name": "",
          "type": "bool"
        }
      ],
      "stateMutability": "nonpayable",
      "type": "function"
    },
    {
      "inputs": [],
      "name": "getGreeting",
      "outputs": [
        {
          "internalType": "string",
          "name": "",
          "type": "string"
        }
      ],
      "stateMutability": "pure",
      "type": "function"
    },
    {
      "inputs": [
        {
          "internalType": "address",
          "name": "asset",
          "type": "address"
        },
        {
          "internalType": "uint256",
          "name": "amount",
          "type": "uint256"
        }
      ],
      "name": "initiateFlashLoan",
      "outputs": [],
      "stateMutability": "nonpayable",
      "type": "function"
    },
    {
      "inputs": [],
      "name": "owner",
      "outputs": [
        {
          "internalType": "address",
          "name": "",
          "type": "address"
        }
      ],
      "stateMutability": "view",
      "type": "function"
    },
    {
      "inputs": [],
      "name": "renounceOwnership",
      "outputs": [],
      "stateMutability": "nonpayable",
      "type": "function"
    },
    {
      "inputs": [
        {
          "internalType": "address",
          "name": "newOwner",
          "type": "address"
        }
      ],
      "name": "transferOwnership",
      "outputs": [],
      "stateMutability": "nonpayable",
      "type": "function"
    }
  ],
  "bytecode": "0x60c06040523480156200001157600080fd5b5060405162000e8338038062000e838339810160408190526200003491620002ee565b6001600055816001600160a01b0381166200006a57604051631e4fbdf760e01b8152600060048201526024015b60405180910390fd5b6200007581620001f4565b506001600160a01b038116620000df5760405162461bcd60e51b815260206004820152602860248201527f41646472657373657350726f76696465722063616e6e6f74206265207a65726f604482015267206164647265737360c01b606482015260840162000061565b6001600160a01b03811660808190526040805163026b1d5f60e01b8152905163026b1d5f916004808201926020929091908290030181865afa1580156200012a573d6000803e3d6000fd5b505050506040513d601f19601f8201168201806040525081019062000150919062000326565b6001600160a01b031660a0819052620001ac5760405162461bcd60e51b815260206004820152601b60248201527f506f6f6c2063616e6e6f74206265207a65726f20616464726573730000000000604482015260640162000061565b60408051808201909152601581527f436f6e7472616374206465706c6f7965642062793a00000000000000000000006020820152620001ec903362000246565b5050620003ad565b600180546001600160a01b038381166001600160a01b0319831681179093556040519116919082907f8be0079c531659141344cd1fd0a4f28419497f9722a3daafe3b4186f6b6457e090600090a35050565b6200029382826040516024016200025f9291906200034b565b60408051601f198184030181529190526020810180516001600160e01b0390811663319af33360e01b179091526200029716565b5050565b620002ad81620002b060201b6200064e1760201c565b50565b60006a636f6e736f6c652e6c6f679050600080835160208501845afa505050565b80516001600160a01b0381168114620002e957600080fd5b919050565b600080604083850312156200030257600080fd5b6200030d83620002d1565b91506200031d60208401620002d1565b90509250929050565b6000602082840312156200033957600080fd5b6200034482620002d1565b9392505050565b604081526000835180604084015260005b818110156200037b57602081870181015160608684010152016200035c565b50600060608285018101919091526001600160a01b03949094166020840152601f01601f191690910190910192915050565b60805160a051610a9c620003e760003960008181610116015281816101a8015281816103b7015261058a0152600060920152610a9c6000f3fe608060405234801561001057600080fd5b50600436106100885760003560e01c80637535d2461161005b5780637535d246146101115780638da5cb5b14610138578063f2fde38b14610149578063fe50cc721461015c57600080fd5b80630542975c1461008d5780631b11d0ff146100d15780635e2c1b3a146100f4578063715018a614610109575b600080fd5b6100b47f000000000000000000000000000000000000000000000000000000000000000081565b6040516001600160a01b0390911681526020015b60405180910390f35b6100e46100df3660046107ec565b61019b565b60405190151581526020016100c8565b610107610102366004610892565b610443565b005b6101076105fc565b6100b47f000000000000000000000000000000000000000000000000000000000000000081565b6001546001600160a01b03166100b4565b6101076101573660046108bc565b610610565b604080518082018252601781527f48656c6c6f2c2041726269747261676520576f726c6421000000000000000000602082015290516100c89190610924565b6000336001600160a01b037f000000000000000000000000000000000000000000000000000000000000000016146102105760405162461bcd60e51b815260206004820152601360248201527210d85b1b195c881b5d5cdd081899481c1bdbdb606a1b60448201526064015b60405180910390fd5b6001600160a01b03841630146102685760405162461bcd60e51b815260206004820152601f60248201527f496e69746961746f72206d757374206265207468697320636f6e7472616374006044820152606401610207565b6102a66040518060400160405280601e81526020017f496e6974696174696e672045786563757465206f7065726174696f6e733a000081525061066f565b60006102b28688610937565b6040516370a0823160e01b81523060048201529091506000906001600160a01b038a16906370a0823190602401602060405180830381865afa1580156102fc573d6000803e3d6000fd5b505050506040513d601f19601f82011682018060405250810190610320919061095e565b9050610344604051806060016040528060228152602001610a4560229139826106b2565b818110156103a05760405162461bcd60e51b8152602060048201526024808201527f4e6f7420656e6f7567682062616c616e636520746f20726570617920746865206044820152633637b0b760e11b6064820152608401610207565b60405163095ea7b360e01b81526001600160a01b037f000000000000000000000000000000000000000000000000000000000000000081166004830152602482018490528a169063095ea7b3906044016020604051808303816000875af115801561040f573d6000803e3d6000fd5b505050506040513d601f19601f820116820180604052508101906104339190610977565b5060019998505050505050505050565b61044b6106fb565b61048a6040518060400160405280602081526020017f496e6974696174696e6720666c617368206c6f616e20666f722061737365743a81525083610728565b6104bd6040518060400160405280601181526020017020b6b7bab73a103932b8bab2b9ba32b21d60791b815250826106b2565b6001600160a01b0382166105135760405162461bcd60e51b815260206004820152601c60248201527f41737365742063616e6e6f74206265207a65726f2061646472657373000000006044820152606401610207565b600081116105635760405162461bcd60e51b815260206004820152601d60248201527f416d6f756e74206d7573742062652067726561746572207468616e20300000006044820152606401610207565b60408051602081018252600080825291516310ac2ddf60e21b815290916001600160a01b037f000000000000000000000000000000000000000000000000000000000000000016916342b0b77c916105c5913091889188918891600401610999565b600060405180830381600087803b1580156105df57600080fd5b505af11580156105f3573d6000803e3d6000fd5b50505050505050565b6106046106fb565b61060e600061076d565b565b6106186106fb565b6001600160a01b03811661064257604051631e4fbdf760e01b815260006004820152602401610207565b61064b8161076d565b50565b60006a636f6e736f6c652e6c6f679050600080835160208501845afa505050565b61064b816040516024016106839190610924565b60408051601f198184030181529190526020810180516001600160e01b031663104c13eb60e21b1790526107bf565b6106f782826040516024016106c89291906109e2565b60408051601f198184030181529190526020810180516001600160e01b0316632d839cb360e21b1790526107bf565b5050565b6001546001600160a01b0316331461060e5760405163118cdaa760e01b8152336004820152602401610207565b6106f7828260405160240161073e929190610a04565b60408051601f198184030181529190526020810180516001600160e01b031663319af33360e01b1790526107bf565b600180546001600160a01b038381166001600160a01b0319831681179093556040519116919082907f8be0079c531659141344cd1fd0a4f28419497f9722a3daafe3b4186f6b6457e090600090a35050565b61064b8161064e565b61060e610a2e565b80356001600160a01b03811681146107e757600080fd5b919050565b60008060008060008060a0878903121561080557600080fd5b61080e876107d0565b9550602087013594506040870135935061082a606088016107d0565b9250608087013567ffffffffffffffff8082111561084757600080fd5b818901915089601f83011261085b57600080fd5b81358181111561086a57600080fd5b8a602082850101111561087c57600080fd5b6020830194508093505050509295509295509295565b600080604083850312156108a557600080fd5b6108ae836107d0565b946020939093013593505050565b6000602082840312156108ce57600080fd5b6108d7826107d0565b9392505050565b6000815180845260005b81811015610904576020818501810151868301820152016108e8565b506000602082860101526020601f19601f83011685010191505092915050565b6020815260006108d760208301846108de565b8082018082111561095857634e487b7160e01b600052601160045260246000fd5b92915050565b60006020828403121561097057600080fd5b5051919050565b60006020828403121561098957600080fd5b815180151581146108d757600080fd5b6001600160a01b038681168252851660208201526040810184905260a0606082018190526000906109cc908301856108de565b905061ffff831660808301529695505050505050565b6040815260006109f560408301856108de565b90508260208301529392505050565b604081526000610a1760408301856108de565b905060018060a01b03831660208301529392505050565b634e487b7160e01b600052605160045260246000fdfe436f6e74726163742062616c616e6365206265666f72652072657061796d656e743aa26469706673582212209d13983bd52fc374b2ca0294d498347a16ab14e5344a64284cae3de5bff0394464736f6c63430008140033",
  "linkReferences": {},
  "deployedLinkReferences": {}
}