{
  "_format": "hh-sol-artifact-1",
  "contractName": "ArbitrageBot",
  "sourceName": "contracts/ArbitrageBot.sol",
  "abi": [
    {
      "inputs": [
        {
          "internalType": "address",
          "name": "initialOwner",
          "type": "address"
        },
        {
          "internalType": "address",
          "name": "addressesProvider",
          "type": "address"
        }
      ],
      "stateMutability": "nonpayable",
      "type": "constructor"
    },
    {
      "inputs": [
        {
          "internalType": "address",
          "name": "owner",
          "type": "address"
        }
      ],
      "name": "OwnableInvalidOwner",
      "type": "error"
    },
    {
      "inputs": [
        {
          "internalType": "address",
          "name": "account",
          "type": "address"
        }
      ],
      "name": "OwnableUnauthorizedAccount",
      "type": "error"
    },
    {
      "inputs": [],
      "name": "ReentrancyGuardReentrantCall",
      "type": "error"
    },
    {
      "anonymous": false,
      "inputs": [
        {
          "indexed": true,
          "internalType": "address",
          "name": "previousOwner",
          "type": "address"
        },
        {
          "indexed": true,
          "internalType": "address",
          "name": "newOwner",
          "type": "address"
        }
      ],
      "name": "OwnershipTransferred",
      "type": "event"
    },
    {
      "inputs": [],
      "name": "ADDRESSES_PROVIDER",
      "outputs": [
        {
          "internalType": "contract IPoolAddressesProvider",
          "name": "",
          "type": "address"
        }
      ],
      "stateMutability": "view",
      "type": "function"
    },
    {
      "inputs": [],
      "name": "POOL",
      "outputs": [
        {
          "internalType": "contract IPool",
          "name": "",
          "type": "address"
        }
      ],
      "stateMutability": "view",
      "type": "function"
    },
    {
      "inputs": [
        {
          "internalType": "address",
          "name": "tokenAddress",
          "type": "address"
        }
      ],
      "name": "checkTokenBalance",
      "outputs": [
        {
          "internalType": "uint256",
          "name": "",
          "type": "uint256"
        }
      ],
      "stateMutability": "view",
      "type": "function"
    },
    {
      "inputs": [
        {
          "internalType": "address",
          "name": "asset",
          "type": "address"
        },
        {
          "internalType": "uint256",
          "name": "amount",
          "type": "uint256"
        },
        {
          "internalType": "uint256",
          "name": "premium",
          "type": "uint256"
        },
        {
          "internalType": "address",
          "name": "initiator",
          "type": "address"
        },
        {
          "internalType": "bytes",
          "name": "params",
          "type": "bytes"
        }
      ],
      "name": "executeOperation",
      "outputs": [
        {
          "internalType": "bool",
          "name": "",
          "type": "bool"
        }
      ],
      "stateMutability": "nonpayable",
      "type": "function"
    },
    {
      "inputs": [],
      "name": "getGreeting",
      "outputs": [
        {
          "internalType": "string",
          "name": "",
          "type": "string"
        }
      ],
      "stateMutability": "pure",
      "type": "function"
    },
    {
      "inputs": [
        {
          "internalType": "address",
          "name": "asset",
          "type": "address"
        },
        {
          "internalType": "uint256",
          "name": "amount",
          "type": "uint256"
        },
        {
          "internalType": "string",
          "name": "direction",
          "type": "string"
        },
        {
          "internalType": "address",
          "name": "assetIn",
          "type": "address"
        },
        {
          "internalType": "address",
          "name": "assetOut",
          "type": "address"
        },
        {
          "internalType": "uint256",
          "name": "AmountOut",
          "type": "uint256"
        }
      ],
      "name": "initiateFlashLoan",
      "outputs": [],
      "stateMutability": "nonpayable",
      "type": "function"
    },
    {
      "inputs": [],
      "name": "owner",
      "outputs": [
        {
          "internalType": "address",
          "name": "",
          "type": "address"
        }
      ],
      "stateMutability": "view",
      "type": "function"
    },
    {
      "inputs": [],
      "name": "renounceOwnership",
      "outputs": [],
      "stateMutability": "nonpayable",
      "type": "function"
    },
    {
      "inputs": [
        {
          "internalType": "address",
          "name": "newOwner",
          "type": "address"
        }
      ],
      "name": "transferOwnership",
      "outputs": [],
      "stateMutability": "nonpayable",
      "type": "function"
    }
  ],
  "bytecode": "0x60c0604081815234620002e5578082620015248038038091620000238285620002ea565b833981010312620002e557620000398262000324565b62000048602080940162000324565b60016000908155916001600160a01b0391908216908115620002cd57600180546001600160a01b03198116841790915585519284929183167f8be0079c531659141344cd1fd0a4f28419497f9722a3daafe3b4186f6b6457e08780a3169081156200027a5750848160049260805285519283809263026b1d5f60e01b82525afa908115620002705783916200022f575b50168060a05215620001eb578151928383016001600160401b03811185821017620001d7578352601584527f436f6e7472616374206465706c6f7965642062793a00000000000000000000008185015282518181019163319af33360e01b8352846024830152855195866064840152845b878110620001c2575050506200018360848287868381999a84010152336044830152601f80199101168101036064810184520182620002ea565b51906a636f6e736f6c652e6c6f675afa50516111ea90816200033a823960805181610b54015260a0518181816103010152818161047301526105700152f35b81810183015184820160840152820162000149565b634e487b7160e01b83526041600452602483fd5b815162461bcd60e51b815260048101849052601b60248201527f506f6f6c2063616e6e6f74206265207a65726f206164647265737300000000006044820152606490fd5b90508481813d831162000268575b620002498183620002ea565b8101031262000264576200025d9062000324565b38620000d8565b8280fd5b503d6200023d565b84513d85823e3d90fd5b62461bcd60e51b815260048101869052602860248201527f41646472657373657350726f76696465722063616e6e6f74206265207a65726f604482015267206164647265737360c01b6064820152608490fd5b8451631e4fbdf760e01b815260048101859052602490fd5b600080fd5b601f909101601f19168101906001600160401b038211908210176200030e57604052565b634e487b7160e01b600052604160045260246000fd5b51906001600160a01b0382168203620002e55756fe608060408181526004918236101561001657600080fd5b600092833560e01c9182630542975c14610b4057508163126cbe6014610b185781631b11d0ff14610502578163715018a6146104a25781637535d2461461045e5781638da5cb5b14610435578163de05e5b514610180578163f2fde38b146100eb575063fe50cc721461008857600080fd5b346100e757816003193601126100e75780516100e3916100a782610bb4565b601782527f48656c6c6f2c2041726269747261676520576f726c6421000000000000000000602083015251918291602083526020830190610c7b565b0390f35b5080fd5b90503461017c57602036600319011261017c57610106610b83565b9061010f610cbb565b6001600160a01b03918216928315610166575050600154826bffffffffffffffffffffffff60a01b821617600155167f8be0079c531659141344cd1fd0a4f28419497f9722a3daafe3b4186f6b6457e0600080a380f35b51631e4fbdf760e01b8152908101849052602490fd5b8280fd5b9190503461017c5760c036600319011261017c5761019c610b83565b9167ffffffffffffffff90604435828111610431576101be9036908301610c24565b916101c7610b9e565b6001600160a01b0360843581811695929086900361042d5786956101e9610cbb565b8651916101f583610bb4565b6020918284528284017f496e6974696174696e6720666c617368206c6f616e20666f722061737365743a90528b808a519586888782019263319af33360e01b845260249e8f8401526064830161024a91610c7b565b9f169e8f60448301520396601f199788810182526102689082610c02565b51905a6a636f6e736f6c652e6c6f6790fa5089519561028687610bb4565b601187528387017020b6b7bab73a103932b8bab2b9ba32b21d60791b9052893596876102b19161116f565b8b156103eb5786156103a957926102ff928d979592876102e0608099978f519a8b9687015260a0860190610c7b565b92168d840152606083015260a435608083015203908101855284610c02565b7f00000000000000000000000000000000000000000000000000000000000000001690813b156103a557836103609989519a8b95869485936310ac2ddf60e21b8552308c8601528c850152604484015260a0606484015260a4830190610c7b565b82608483015203925af1801561039b57610378578580f35b841161038a5750505238808080808580f35b634e487b7160e01b85526041905283fd5b84513d88823e3d90fd5b8380fd5b8a5162461bcd60e51b8152808a01859052601d818c01527f416d6f756e74206d7573742062652067726561746572207468616e20300000006044820152606490fd5b8a5162461bcd60e51b8152808a01859052601c818c01527f41737365742063616e6e6f74206265207a65726f2061646472657373000000006044820152606490fd5b8880fd5b8580fd5b5050346100e757816003193601126100e75760015490516001600160a01b039091168152602090f35b5050346100e757816003193601126100e757517f00000000000000000000000000000000000000000000000000000000000000006001600160a01b03168152602090f35b83346104ff57806003193601126104ff576104bb610cbb565b600180546001600160a01b0319811690915581906001600160a01b03167f8be0079c531659141344cd1fd0a4f28419497f9722a3daafe3b4186f6b6457e08280a380f35b80fd5b90503461017c5760a036600319011261017c5761051d610b83565b92602490813561052b610b9e565b906084359667ffffffffffffffff90818911610924573660238a01121561092457888701358281116104315789019186830190368211610a995760018060a01b0393847f00000000000000000000000000000000000000000000000000000000000000001696873303610adf578530911603610a9d578b6080910312610a9957878b0135908111610a995790876105c4928c0101610c24565b986105d160448201610d5c565b838060846105e160648601610d5c565b940135921692168b519b8b7fd978d755276b4d0ccc947318b006d6da9c570f55208fadd8a0009c90145b0d7760209e8f80940120730554e49535741505f544f5f5355534849535741560641b84845161063981610bb4565b6014815201520361098e577f6669727374207377617020646f6e6520627965642066726f6d20756e697377616106b092610675868b878a610fe1565b82519261068184610be6565b83528201527f7020616e642072656164792074702073656c6c206f6e207375736869737761708d820152611120565b8a516370a0823160e01b8152308b820152908c828b81845afa91821561098457928d928d928b95869261094b575b5086936107116107289461072d9794899a770546f6b656e2042616c616e636520616674657220737761760441b95610dd3565b519161071c83610bb4565b60188352820152611120565b610ce7565b8a518c81019163f82c50f160e01b83528a82015289815261074d81610be6565b51906a636f6e736f6c652e6c6f675afa5061078e83895161076d81610bb4565b601081526f30b6b7bab73a103137b93937bbb2b21d60811b8c82015261116f565b6044358301809311610939576107c78389516107a981610bb4565b600d81526c30b6b7bab73a1037bbb4b7339d60991b8c82015261116f565b169186516370a0823160e01b8152308782015288818781875afa90811561092f5790839186916108fa575b50106108ad579060448892858951958694859363095ea7b360e01b85528b850152898401525af19182156108a25791610875575b50156108355750505160018152f35b60649360179293519362461bcd60e51b85528401528201527f417070726f76616c20746f20504f4f4c206661696c65640000000000000000006044820152fd5b6108959150853d871161089b575b61088d8183610c02565b810190610dbb565b38610826565b503d610883565b8551903d90823e3d90fd5b608486868a8a519262461bcd60e51b8452830152808201527f4e6f7420656e6f7567682062616c616e636520746f20726570617920746865206044820152633637b0b760e11b6064820152fd5b8092508a8092503d8311610928575b6109138183610c02565b8101031261092457829051386107f2565b8480fd5b503d610909565b88513d87823e3d90fd5b634e487b7160e01b8552601187528585fd5b935093809295508391503d831161097d575b6109678183610c02565b8101031261042d575188928d928d9290856106de565b503d61095d565b8c513d8b823e3d90fd5b7f6669727374207377617020646f6e6520627965642066726f6d207375736869736109fa926109bf868b878a610dd3565b8251926109cb84610be6565b83528201527f77617020616e6420726561647920746f2073656c6c206f6e20756e69737761708d820152611120565b8a516370a0823160e01b8152308b820152908c828b81845afa91821561098457928d928d928b958692610a60575b508693610a5b6107289461072d9794899a770546f6b656e2042616c616e636520616674657220737761760441b95610fe1565b610711565b935093809295508391503d8311610a92575b610a7c8183610c02565b8101031261042d575188928d928d929085610a28565b503d610a72565b8680fd5b8a5162461bcd60e51b81526020818c0152601f818b01527f496e69746961746f72206d757374206265207468697320636f6e7472616374006044820152606490fd5b508a5162461bcd60e51b81526020818c01526013818b01527210d85b1b195c881b5d5cdd081899481c1bdbdb606a1b6044820152606490fd5b5050346100e75760203660031901126100e757602090610b39610728610b83565b9051908152f35b8490346100e757816003193601126100e7577f00000000000000000000000000000000000000000000000000000000000000006001600160a01b03168152602090f35b600435906001600160a01b0382168203610b9957565b600080fd5b606435906001600160a01b0382168203610b9957565b6040810190811067ffffffffffffffff821117610bd057604052565b634e487b7160e01b600052604160045260246000fd5b6060810190811067ffffffffffffffff821117610bd057604052565b90601f8019910116810190811067ffffffffffffffff821117610bd057604052565b81601f82011215610b995780359067ffffffffffffffff8211610bd05760405192610c59601f8401601f191660200185610c02565b82845260208383010111610b9957816000926020809301838601378301015290565b919082519283825260005b848110610ca7575050826000602080949584010152601f8019910116010190565b602081830181015184830182015201610c86565b6001546001600160a01b03163303610ccf57565b60405163118cdaa760e01b8152336004820152602490fd5b6040516370a0823160e01b815230600482015290602090829060249082906001600160a01b03165afa908115610d5057600091610d22575090565b906020823d8211610d48575b81610d3b60209383610c02565b810103126104ff57505190565b3d9150610d2e565b6040513d6000823e3d90fd5b35906001600160a01b0382168203610b9957565b67ffffffffffffffff8111610bd05760051b60200190565b805115610d955760200190565b634e487b7160e01b600052603260045260246000fd5b805160011015610d955760400190565b90816020910312610b9957518015158103610b995790565b9093929193604091825190610de782610be6565b600282526020968783019185368437610dff84610d88565b6001600160a01b03918216908190529481610e1986610dab565b9116905285519363095ea7b360e01b855273d9e1ce17f2641f24ae83637ab66a2cca9c378b9f948560048201528360248201528a816044816000809b5af1908115610fd7578791610fba575b5015610f845796929085949287519889956338ed173960e01b875260a48701926004880152602487015260a060448701525180915260c48501929186905b8c838310610f645750505050508383809230606483015242608483015203925af18015610f5857610ed6575b5050509050565b3d8082853e610ee58185610c02565b83019285818503126100e75780519067ffffffffffffffff821161017c57019083601f830112156104ff578580835194610f2a610f2187610d70565b91519182610c02565b858152019360051b8301019384116104ff57508401905b82821015610ecf5781518152908401908401610f41565b509051903d90823e3d90fd5b8451821686528998508b9750948501949390930192600190910190610ea3565b865162461bcd60e51b8152600481018b9052600f60248201526e105c1c1c9bdd985b0819985a5b1959608a1b6044820152606490fd5b610fd191508b3d8d1161089b5761088d8183610c02565b38610e65565b88513d89823e3d90fd5b9093929193604091825190610ff582610be6565b60028252602096878301918536843761100d84610d88565b6001600160a01b0391821690819052948161102786610dab565b9116905285519363095ea7b360e01b8552737a250d5630b4cf539739df2c5dacb4c659f2488d948560048201528360248201528a816044816000809b5af1908115610fd7578791611103575b5015610f845796929085949287519889956338ed173960e01b875260a48701926004880152602487015260a060448701525180915260c48501929186905b8c8383106110e35750505050508383809230606483015242608483015203925af18015610f5857610ed6575050509050565b8451821686528998508b97509485019493909301926001909101906110b1565b61111a91508b3d8d1161089b5761088d8183610c02565b38611073565b6000809160405161115c8161114e602082019463104c13eb60e21b8652602060248401526044830190610c7b565b03601f198101835282610c02565b51906a636f6e736f6c652e6c6f675afa50565b60009190829161115c60405180926111a06020830195632d839cb360e21b8752604060248501526064840190610c7b565b90604483015203601f198101835282610c0256fea26469706673582212201b691fd9f641ed462b5c5f4d45f361624d2699609b88e05ed7a385dc44edff8564736f6c63430008140033",
  "linkReferences": {},
  "deployedLinkReferences": {}
}